:0400000007EF00F016
:0A0008007D8285ED09F0B4EF0BF0E6
:10060000002020202020202020202020202020200A
:1006100000494E542045585445524E4100436F7591
:100620006E7465723A0025303164000044C0D9FF11
:1006300045C0DAFFDECFF6FFDDCFF7FF0800F5504B
:10064000250AD8A426EF03F028EF03F0A1EF04F069
:1006500044C0D9FF45C0DAFFDE2A000EDD22000EBD
:10066000766E000E756E75C079F076C07AF0776898
:100670007868000E556E000E546E85EF03F0798099
:1006800044C0D9FF45C0DAFFDE2A000EDD2285EF27
:1006900003F0798240EF03F0798440EF03F079862C
:1006A00040EF03F0798840EF03F0000E556E010E25
:1006B000546E85EF03F044C0D9FF45C0DAFFDECFAA
:1006C000F6FFDDCFF7FF0800F550486E496A495044
:1006D000000AD8B46EEF03F055EF03F04850200A3B
:1006E000D8B44FEF03F0030AD8B452EF03F0080A6E
:1006F000D8B44CEF03F0060AD8B43FEF03F01D0A5C
:10070000D8B449EF03F055EF03F054505510D8B466
:100710008CEF03F08EEF03F05BEF03F079A093EF23
:1007200003F095EF03F096EF03F0799244C0D9FF00
:1007300045C0DAFFDECFF6FFDDCFF7FF0800F5504A
:100740002A0AD8A4A6EF03F0A8EF03F0D1EF03F034
:1007500044C0D9FF45C0DAFFDE2A000EDD2246C0C4
:10076000D9FF47C0DAFFDFCF48F0020EDE26DFCF29
:1007700049F0000EDD2248C0D9FF49C0DAFFDECFC4
:1007800075F0DDCF76F076BECAEF03F0C8EF03F068
:1007900007EF04F07980756C761ED8B0762A07EFE3
:1007A00004F044C0D9FF45C0DAFFDECF0AF0DDCF48
:1007B0000BF0A2EC07F00AC075F00BC076F0E8EF82
:1007C00003F044C0D9FF45C0DAFFDE2A000EDD2267
:1007D000D00E486EFF0E496E44C0D9FF45C0DAFF07
:1007E000DECFF6FFDDCFF7FF0800F5504A6E4B6A0B
:1007F00048504A2649504B224B5009E10A0E4A5CA8
:10080000D8A005EF04F007EF04F0E1EF03F044C0D7
:10081000D9FF45C0DAFFDECFF6FFDDCFF7FF0800D6
:10082000F550640AD8B417EF04F019EF04F02BEF79
:1008300004F044C0D9FF45C0DAFFDECFF6FFDDCFBC
:10084000F7FF0800F550690AD8A429EF04F02BEF50
:1008500004F06BEF04F044C0D9FF45C0DAFFDE2A94
:10086000000EDD2246C0D9FF47C0DAFFDFCF48F0D7
:10087000020EDE26DFCF49F0000EDD2248C0D9FF90
:1008800049C0DAFFDECF4CF0DDCF4DF0000E4DBE9B
:10089000FF0E4E6E4F6E506E516E526E536E42C0D2
:1008A0001EF043C01FF04CC020F04DC021F04EC0E0
:1008B00022F04FC023F050C024F051C025F052C0A8
:1008C00026F053C027F0BDEC04F01EC042F01FC05C
:1008D00043F0BCEF04F044C0D9FF45C0DAFFDECFDF
:1008E000F6FFDDCFF7FF0800F550250AD8A47BEF0F
:1008F00004F07DEF04F094EF04F044C0D9FF45C04C
:10090000DAFFDE2A000EDD22000E046E250E036ED5
:1009100042C005F043C006F0BFEC08F0000E436E85
:10092000010E426EBCEF04F044C0D9FF45C0DAFFAF
:10093000DE2A000EDD22000E436E000E426EBCEF7A
:1009400004F044C0D9FF45C0DAFFDECFF6FFDDCFAB
:10095000F7FF0800F550036E046A42C005F043C07B
:1009600006F0BFEC08F044C0D9FF45C0DAFFDE2A2C
:10097000000EDD228EEF04F0120020C038F021C0FE
:1009800039F022C03AF023C03BF024C03CF025C02F
:100990003DF026C03EF027C03FF03FBED2EF04F04E
:1009A000D5EF04F0010ED6EF04F0000E366E376A74
:1009B00036503710D8B4DFEF04F0E1EF04F0F1EF78
:1009C00004F03F1E3E1E3D1E3C1E3B1E3A1E391EBD
:1009D000386C000E39223A223B223C223D223E2234
:1009E0003F2278BEF6EF04F0F8EF04F0F9EF04F0E0
:1009F000799278BE06EF05F0785006E17704D8B01A
:100A000004EF05F006EF05F00CEF05F0000E336E75
:100A1000010E326E10EF05F077C032F078C033F07F
:100A200075C034F076C035F036503710D8A41BEFBF
:100A300005F01DEF05F024EF05F079A422EF05F095
:100A400024EF05F027EF05F03406D8A03506000E98
:100A5000416E1F0E406E000E00019F6FACEF05F05F
:100A60004006D8A04106800E4024D96E000E4120D9
:100A7000DA6E38C003F039C004F03AC005F03BC06C
:100A800006F03CC007F03DC008F03EC009F03FC092
:100A90000AF00A0E0B6E000E0C6E000E0D6E000EAC
:100AA0000E6E000E0F6E000E106E000E116E000E18
:100AB000126EF0EC06F003C028F004C029F005C067
:100AC0002AF006C02BF007C02CF008C02DF009C09A
:100AD0002EF00AC02FF028C015F02AC016F05DECE9
:100AE0000BF01550300FDF6E3206D8A033063406F7
:100AF000D8A0350638C003F039C004F03AC005F07C
:100B00003BC006F03CC007F03DC008F03EC009F015
:100B10003FC00AF00A0E0B6E000E0C6E000E0D6E3A
:100B2000000E0E6E000E0F6E000E106E000E116E97
:100B3000000E126E2CEC06F003C038F004C039F041
:100B400005C03AF006C03BF007C03CF008C03DF0DD
:100B500009C03EF00AC03FF041BEB7EF05F041507A
:100B600008E14004D8A0B7EF05F0B9EF05F0E9EFD0
:100B700005F0385039103A103B103C103D103E1033
:100B80003F10D8A4C6EF05F0C8EF05F030EF05F030
:100B900033BED5EF05F0335006E13204D8B0D3EFC1
:100BA00005F0D5EF05F030EF05F035BEE0EF05F0CC
:100BB000355008E13404D8A0E0EF05F0E2EF05F08D
:100BC000E9EF05F079B2E7EF05F0E9EF05F030EF76
:100BD00005F036503710D8A4F0EF05F0F2EF05F02D
:100BE000F9EF05F079A4F7EF05F0F9EF05F017EF4D
:100BF00006F04006D8A0410636503710D8A403EFBF
:100C000006F005EF06F00BEF06F0000E316E2B0E2E
:100C1000306E0FEF06F0000E316E2D0E306E800E2E
:100C20004024D96E000E4120DA6E30C0DFFF1EC0B6
:100C300013F01FC014F0800E4024156E000E4120EA
:100C4000166E34C017F035C018F024EC09F013C04C
:100C50001EF014C01FF01200000E146E12BE35EF0D
:100C600006F033EF06F047EF06F0121E111E101EBD
:100C70000F1E0E1E0D1E0C1E0B6C000E0C220D22E4
:100C80000E220F22102211221222010E146E0ABE11
:100C90004EEF06F04CEF06F060EF06F00A1E091E5C
:100CA000081E071E061E051E041E036C000E0422ED
:100CB000052206220722082209220A22010E141AFE
:100CC00020EE15F0070EDE6AE806FDE20B500C1070
:100CD0000D100E100F10101011101210D8B473EF69
:100CE00006F075EF06F0C7EF06F0010E136E83EF06
:100CF00006F0D8900B360C360D360E360F36103601
:100D000011361236132A12AE88EF06F08AEF06F07B
:100D100079EF06F0D890153616361736183619368C
:100D20001A361B361C360B50035C0C5004580D5001
:100D300005580E5006580F500758105008581150BB
:100D4000095812500A58D8A0A8EF06F0AAEF06F0EA
:100D5000BBEF06F00B50035E0C50045A0D50055AC1
:100D60000E50065A0F50075A1050085A1150095A7F
:100D700012500A5A1580D8901232113210320F32A6
:100D80000E320D320C320B32132E8AEF06F0145055
:100D9000D8B4CDEF06F0CFEF06F0DFEF06F01C1E63
:100DA0001B1E1A1E191E181E171E161E156C000E6D
:100DB00016221722182219221A221B221C2215C0C1
:100DC00003F016C004F017C005F018C006F019C0F3
:100DD00007F01AC008F01BC009F01CC00AF012008E
:100DE000000E146E0ABEF9EF06F0F7EF06F00BEFF7
:100DF00007F00A1E091E081E071E061E051E041EF9
:100E0000036C000E04220522062207220822092272
:100E10000A22010E146E12BE12EF07F010EF07F057
:100E200022EF07F0121E111E101E0F1E0E1E0D1EA9
:100E30000C1E0B6C000E0C220D220E220F22102213
:100E4000112212220B500C100D100E100F1010104A
:100E500011101210D8B42FEF07F031EF07F079EF2F
:100E600007F0010E136E3FEF07F0D8900B360C36EB
:100E70000D360E360F36103611361236132A12AED4
:100E800044EF07F046EF07F035EF07F00B50035C37
:100E90000C5004580D5005580E5006580F50075866
:100EA000105008581150095812500A58D8A05BEF3A
:100EB00007F05DEF07F06DEF07F00B50035E0C508D
:100EC000045A0D50055A0E50065A0F50075A10502A
:100ED000085A1150095A12500A5AD8901232113237
:100EE00010320F320E320D320C320B32132E46EF0F
:100EF00007F01450D8B47FEF07F081EF07F091EFBF
:100F000007F00A1E091E081E071E061E051E041EE7
:100F1000036C000E04220522062207220822092261
:100F20000A2203C003F004C004F005C005F006C0A7
:100F300006F007C007F008C008F009C009F00AC0B1
:100F40000AF01200000E136E000E126E000E116EEB
:100F5000000E106EAEEF07F00A4A0B2A0AC0F6FF29
:100F60000BC0F7FF0800F550200AD8B4BAEF07F01D
:100F7000BCEF07F0ACEF07F0F70E0C6EFF0E0D6E36
:100F80000AC0F6FF0BC0F7FF0800F5500E6E0F6A9F
:100F90000C500E260D500F220F5009E1050E0E5C6D
:100FA000D8A0D5EF07F0D7EF07F0ACEF07F0E1EFEF
:100FB00007F0000E116E010E106E0A4A0B2A16EF92
:100FC00008F00AC0F6FF0BC0F7FF0800F5500C6EE2
:100FD0000D6A0D50000AD8B4F0EF07F016EF08F0D4
:100FE0000C502B0AD8B4DDEF07F0060AD8B4D9EFBD
:100FF00007F016EF08F012C003F013C004F0000E63
:10100000066E0A0E056EC7EC0BF00AC0F6FF0BC0A9
:10101000F7FF0800F550035E000E045A300E03245B
:10102000126E000E0420136EDDEF07F0D00E0C6E72
:10103000FF0E0D6E0AC0F6FF0BC0F7FF0800F5505B
:101040000E6E0F6A0C500E260D500F220F5009E144
:101050000A0E0E5CD8A02FEF08F031EF08F0FBEF7E
:1010600007F010501110D8A438EF08F03AEF08F04C
:1010700048EF08F012C00CF013C00DF00C1E0D1E4E
:101080000C4A0D2A0CC00AF00DC00BF04CEF08F012
:1010900012C00AF013C00BF01200066E100E036EA1
:1010A0000650DAEC0BF0056E053A83500518EF0B8D
:1010B0000518836E200E036E0650DAEC0BF0056EF9
:1010C000053A054683500518DF0B0518836E400E60
:1010D000036E0650DAEC0BF0056E053A0546054640
:1010E00083500518BF0B0518836E800E036E0650E3
:1010F000DAEC0BF0056E05320532835005187F0BD4
:101100000518836E84848494420EE82EFED700D0A6
:10111000010E036E0650DAEC0BF0056E053A8350B3
:101120000518EF0B0518836E020E036E0650DAECFD
:101130000BF0056E053A054683500518DF0B0518C0
:10114000836E040E036E0650DAEC0BF0056E053A62
:101150000546054683500518BF0B0518836E080E1B
:10116000036E0650DAEC0BF0056E05320532835043
:1011700005187F0B0518836E848484941200055033
:101180000610D8B4C6EF08F0C8EF08F0D1EF08F0A9
:1011900005500610D8A4CFEF08F0D1EF08F0D6EF35
:1011A00008F003500DEC0CF023EF09F020EE09F0ED
:1011B0000550D9260650DA22DE50DE10D8B4E3EF0F
:1011C00008F0E5EF08F000EF09F020EE09F0055017
:1011D000D9260650DA2210EE03F00550E12606501B
:1011E000E222DE50E65CE650800A0B6EDE50800A9A
:1011F0000B58D8B0FEEF08F000EF09F023EF09F02C
:1012000020EE03F00550D9260650DA22DECF07F093
:10121000DDCF08F005C0D9FF06C0DAFFDECF09F048
:10122000DDCF0AF007500924D96E08500A20DA6E83
:1012300003C0DFFF20EE03F00550D9260650DA2266
:10124000DE2A000EDD22120079A029EF09F02BEF33
:1012500009F035EF09F015C00CF016C00DF013C001
:101260000EF014C00FF03BEC0BF018BE3AEF09F093
:101270003CEF09F042EF09F017C01CF018C01DF058
:1012800046EF09F0000E1D6E000E1C6E000E1B6E68
:10129000000E1A6E58EF09F0000E046E200E036E59
:1012A00013C005F014C006F0BFEC08F01A4A1B2A60
:1012B0001C501A5C1B50800A196E1D50800A195868
:1012C000D8A065EF09F067EF09F04CEF09F079B0AD
:1012D0006CEF09F06EEF09F078EF09F015C00CF033
:1012E00016C00DF013C00EF014C00FF03BEC0BF065
:1012F00015C003F016C004F099EC0BF01C50032449
:10130000136E1D500420146E12000600F2A28BEF23
:1013100009F08DEF09F0DAEF09F07B4A7C2A7CBEF8
:101320009DEF09F07C5007E1060E7B5CD8B09BEF87
:1013300009F09DEF09F0D9EF09F0B7EF09F00E0EB3
:10134000826ED9EF09F00C0E826ED9EF09F0080E0B
:10135000826ED9EF09F0000E826ED9EF09F00F0E00
:10136000826E000E7C6E000E7B6ED9EF09F07BC0A2
:1013700001F07CC002F00250000AD8B4C2EF09F0BC
:10138000D9EF09F00150010AD8B49FEF09F0030A20
:10139000D8B4A3EF09F0010AD8B4A7EF09F0070AFF
:1013A000D8B4ABEF09F0010AD8B4AFEF09F0D9EF28
:1013B00009F0F2927D9211000D6E0D04D8A4E3EFB6
:1013C00009F0E5EF09F0EAEF09F009507F0F0C6E24
:1013D000F6EF09F0020E0D18D8A4F1EF09F0F3EFC3
:1013E00009F0F6EF09F00950BF0F0C6E0CC007F0C2
:1013F000000EEAEC0BF013EF0AF00AC0F6FF0BC088
:10140000F7FFF86A050EF76403D00800F55005D021
:10141000F6CFE1FFF7CFE2FFE750076E010EEAECEF
:101420000BF00A4A0B2A0AC0F6FF0BC0F7FFF86A56
:10143000050EF76403D00800F55005D0F6CFE1FFA4
:10144000F7CFE2FFE7500009D8A429EF0AF02BEF0D
:101450000AF0FDEF09F01200000E956E9694969238
:101460009690000E836E849084928494270E076E6B
:10147000F50EE82EFED7072EFCD700F0000E086E02
:10148000300E4DEC08F00D0E076EFC0EE82EFED768
:10149000072EFCD7082A020E086451EF0AF053EF1A
:1014A0000AF040EF0AF0020E4DEC08F01A0EE82E9A
:1014B000FED700D0280E4DEC08F01A0EE82EFED70D
:1014C00000D0010E4DEC08F0060E076E300EE82E2F
:1014D000FED7072EFCD700D00C0E4DEC08F01A0EEC
:1014E000E82EFED700D0060E4DEC08F01A0EE82EBE
:1014F000FED700D0120003EC0CF0F9EC0BF008EC76
:101500000CF02CEC0AF0020E096E110E0A6E060E9B
:101510000B6E010EDCEC09F0020E096E1D0E0A6E58
:10152000060E0B6E020EDCEC09F0020E726E040E5B
:10153000716EBA0EE82EFED7712EFCD7722EFAD736
:1015400000D0A00E5E6E000E5F6E260E606E060E60
:10155000616E7BC062F07CC063F014EC0BF00A0E8D
:10156000096EA00E0A6E000E0B6E020EDCEC09F086
:1015700095EF0AF007EF00F058C05CF059C05DF03D
:10158000000E746E000E736ED8EF0AF056C042F073
:1015900057C043F05C0E446E000E456E5AC046F0D4
:1015A0005BC047F016EC03F04250732643507422A0
:1015B0005CC0F6FF5DC0F7FF0800F5500009D8A435
:1015C000E4EF0AF0E6EF0AF0C6EF0AF073C056F057
:1015D00074C057F01200010E096E200E031804109B
:1015E000D8B4F5EF0AF0F7EF0AF010EF0BF0F70EB2
:1015F000056EFF0E066E03C007F004C008F005502C
:10160000072606500822085009E1050E075CD8A0FD
:101610000CEF0BF00EEF0BF010EF0BF0000E096E5D
:1016200009C003F0046A1200620E646E000E656E5B
:101630005EC066F05FC067F0000E6A6E000E696EF5
:10164000000E706E000E6F6E660E566E000E576EB8
:1016500060C058F061C059F0640E5A6E000E5B6EA7
:10166000BCEC0AF069505E24D96E6A505F20DA6ED5
:10167000000EDF6E1200000E126E000E116E4CEFA7
:101680000BF010C003F0046A0EC005F00FC006F0A6
:10169000BFEC08F0114A122A11500C24D96E1250D6
:1016A0000D20DA6EDF50106E1050D8A45AEF0BF0F8
:1016B0005CEF0BF041EF0BF0120016BE6AEF0BF07F
:1016C000165006E11504D8B068EF0BF06AEF0BF086
:1016D00078EF0BF015C017F016C018F0171E181E83
:1016E000174A182A17C015F018C016F07CEF0BF037
:1016F00015C015F016C016F01200D00E056EFF0EC4
:10170000066E03C007F004C008F005500726065017
:10171000082208500AE10A0E075CD8A092EF0BF0ED
:1017200095EF0BF0010E96EF0BF0000E036E046ABE
:10173000120003C005F004C006F0A1EF0BF0034A4D
:10174000042A03C0D9FF04C0DAFFDF50D8A4ABEFEE
:101750000BF0ADEF0BF09FEF0BF00550035C036E49
:1017600006500458046E120000EE80F0300EEE6A4F
:10177000E806FDE100EE73F00A0EEE6AE806FDE110
:101780007D907D92000EF86E00017BEF0AF0035011
:101790000502F3CF07F0F4CF08F003500602F35030
:1017A000082604500502F350082607C003F008C0BD
:1017B00004F01200046E045003140009D8B4E3EFDF
:1017C0000BF0E5EF0BF0E8EF0BF0010EE9EF0BF09B
:1017D000000E1200086E08B002D0849001D0848000
:1017E000420EE82EFED700D0849407504DEC08F04E
:1017F0001200010E936E000E946E000E816E8268D0
:101800000F0EC16E1200000ED36E000E9B6E120002
:0C181000900EF26EC00EF16E120012007D
:020000040020DA
:08000000FFFFFFFFFFFFFFFF00
:020000040030CA
:0E000000FF021F1EFF8181FF0FC00FE00F40A7
:00000001FF
