:0400000007EF00F016
:0A0008004E827FED1DF062EF24F040
:100600000020204E4956454C204352495449434FFF
:1006100020200020202020202020202020202020FA
:100620002020002020202020414C455254412020F1
:100630002020004E6976656C3A20252E3066204CCD
:1006400020200053656E736F723A20252E3266208B
:10065000562000494E46004E414E00696E66006EBF
:07066000616E006C660000F2
:10066800000E0001D06F000ECF6FB1C0E1F0B2C034
:10067800E2F0B3C0E3F0B4C0E4F0E4BF48EF03F045
:1006880046EF03F05EEF03F0000ED06F010ECF6F60
:10069800E1C032F0E2C033F0E3C034F0E4C035F03A
:1006A8000FEC24F032C0E1F033C0E2F034C0E3F0E4
:1006B80035C0E4F0000E0001E86F000EE76F46C099
:1006C800D3F047C0D4F0CF51D011D8A46EEF03F0C7
:1006D80070EF03F077EF03F048A475EF03F077EFBE
:1006E80003F091EF03F0CF51D011D8A47EEF03F0BF
:1006F80080EF03F086EF03F0000EBC6F2B0EBB6F8C
:100708008AEF03F0000EBC6F2D0EBB6FBBC000F16B
:10071800E74BE82BD307D8A0D407E1C032F0E2C0FA
:1007280033F0E3C034F0E4C035F0FFEC1CF03204E1
:100738003310D8A4A2EF03F0A4EF03F0EFEF03F017
:10074800BF0E0001B66FFF0EB76FB551B86FB96B2A
:10075800B651B827B751B923B95107E11A0EB85D98
:10076800D8B0B9EF03F0BBEF03F0C9EF03F0000E08
:10077800E725326E010EE821336E530E346E060EF5
:10078800356E05EC23F0D5EF03F0000EE725326E49
:10079800010EE821336E5B0E346E060E356E05ECE5
:1007A80023F00001FD0ED327FF0ED423AFC08CF039
:1007B800B0C08DF0000E00018E6F010E8F6FD3C098
:1007C80090F0D4C091F0B4EC1FF08CC0AFF08DC0A5
:1007D800B0F03FEF09F0E1C032F0E2C033F0E3C01F
:1007E80034F0E4C035F0FFEC1CF032503310D8A4DC
:1007F80000EF04F002EF04F035EF04F0BF0E000143
:10080800B66FFF0EB76FB551B86FB96BB651B82751
:10081800B751B923B95107E11A0EB85DD8B017EF2F
:1008280004F019EF04F027EF04F0000EE725326E0C
:10083800010EE821336E570E346E060E356E05EC48
:1008480023F0D5EF03F0000EE725326E010EE82104
:10085800336E5F0E346E060E356E05EC23F0D5EF61
:1008680003F0000E0001E96F000EEA6F800EEB6FD7
:100878003F0EEC6F000EE66F000EE56FE1C080F0F2
:10088800E2C081F0E3C082F0E4C083F0000E846F20
:10089800000E856F000E866F000E876FD3EC20F078
:1008A8000001D8B05AEF04F05CEF04F0E1EF04F077
:1008B8007BEF04F0E9C08AF0EAC08BF0EBC08CF063
:1008C800ECC08DF0000E8E6F000E8F6F200E906FB3
:1008D800410E916FC3EC0DF08AC0E9F08BC0EAF0CD
:1008E8008CC0EBF08DC0ECF00001E54BE62BE1C0CD
:1008F800A3F0E2C0A4F0E3C0A5F0E4C0A6F0000EA7
:100908008E6F000E8F6F200E906F410E916FE9C0B1
:100918008AF0EAC08BF0EBC08CF0ECC08DF0C3EC31
:100928000DF08AC0A7F08BC0A8F08CC0A9F08DC0CC
:10093800AAF0FAEC1BF00001D8B0A5EF04F0A7EF7D
:1009480004F05EEF04F0C7EF04F0E9C080F0EAC0FD
:1009580081F0EBC082F0ECC083F0000E846F000ED3
:10096800856F200E866F410E876FEEEC11F080C008
:10097800E9F081C0EAF082C0EBF083C0ECF000013E
:10098800E507D8A0E607E1C0A3F0E2C0A4F0E3C001
:10099800A5F0E4C0A6F0E9C0A7F0EAC0A8F0EBC053
:1009A800A9F0ECC0AAF0FAEC1BF00001D8A0DFEF28
:1009B80004F0E1EF04F0A9EF04F0B5C080F0816B1A
:1009C80087EC23F000018051D66FD6C0D5F0670EB2
:1009D800D619D8A4F2EF04F0F4EF04F01AEF05F0FA
:1009E800FD51FE11D8A4FBEF04F0FDEF04F001EF78
:1009F80005F0000EFE6F010EFD6FFEBF0EEF05F055
:100A0800FE5106E1FD05D8B00CEF05F00EEF05F03C
:100A180014EF05F0000ED26F060ED16F23EF05F02C
:100A2800FDC0D1F0FEC0D2F023EF05F0FEBF1FEFEE
:100A380005F021EF05F00EEF05F014EF05F0670E55
:100A4800D619D8A42AEF05F02CEF05F05BEF05F0D6
:100A5800E6AF3AEF05F0FC0EE55DFF0EE659D8A0CB
:100A680038EF05F03AEF05F059EF05F0FF0EB66FD5
:100A7800FF0EB76FD1C0B8F0D2C0B9F0B651B827E1
:100A8800B751B923E551B85DB951800ABA6FE6513B
:100A9800800ABA59D8A053EF05F055EF05F059EF81
:100AA80005F0660ED56F5BEF05F0650ED56FD1C00A
:100AB800C7F0D2C0C8F0670ED619D8A466EF05F003
:100AC80068EF05F078EF05F0660ED519D8A46FEF3A
:100AD80005F071EF05F07AEF05F0E6BF78EF05F065
:100AE80076EF05F07AEF05F0C74BC82B660ED519DF
:100AF800D8A481EF05F083EF05F0A3EF05F0E6BF7A
:100B08008AEF05F088EF05F096EF05F0000EE96F23
:100B1800000EEA6F800EEB6F3F0EEC6F000EE66F73
:100B2800000EE56F670ED619D8B49DEF05F09FEF5C
:100B380005F0A3EF05F0E551C727E651C823000EDD
:100B4800E06F000EDF6FE1C0D7F0E2C0D8F0E3C07D
:100B5800D9F0E4C0DAF0E9C0C9F0EAC0CAF0EBC0E5
:100B6800CBF0ECC0CCF035EF06F0D7C080F0D8C0A1
:100B780081F0D9C082F0DAC083F0E9C084F0EAC01D
:100B880085F0EBC086F0ECC087F0EEEC11F080C089
:100B980095F081C096F082C097F083C098F008EC79
:100BA80018F095C0DBF096C0DCF097C0DDF098C077
:100BB800DEF0DBC032F0DCC033F0DDC034F0DEC084
:100BC80035F076EC1BF032C0CDF033C0CEF0D7C094
:100BD800A3F0D8C0A4F0D9C0A5F0DAC0A6F0E9C047
:100BE8008EF0EAC08FF0EBC090F0ECC091F0DBC063
:100BF8008AF0DCC08BF0DDC08CF0DEC08DF0C3EC79
:100C08000DF08AC0A7F08BC0A8F08CC0A9F08DC0E9
:100C1800AAF0CFEC23F0A3C0D7F0A4C0D8F0A5C0A9
:100C2800D9F0A6C0DAF0E9C080F0EAC081F0EBC0E4
:100C380082F0ECC083F0000E0001846F000E856F17
:100C4800200E866F410E876FEEEC11F080C0E9F040
:100C580081C0EAF082C0EBF083C0ECF00001DF4B0A
:100C6800E02BC751DF5DE051800AB66FC851800A9A
:100C7800B659D8A042EF06F044EF06F0B9EF05F0F8
:100C8800E9C08AF0EAC08BF0EBC08CF0ECC08DF0C4
:100C9800000E8E6F000E8F6FA00E906F400E916F3A
:100CA800C3EC0DF08AC0DBF08BC0DCF08CC0DDF04B
:100CB8008DC0DEF0D7C0A3F0D8C0A4F0D9C0A5F08D
:100CC800DAC0A6F0DBC0A7F0DCC0A8F0DDC0A9F050
:100CD800DEC0AAF0FAEC1BF00001D8B076EF06F0FF
:100CE80078EF06F082EF06F0000EDB6F000EDC6F87
:100CF800000EDD6F000EDE6FABEF06F0D7C080F0A0
:100D0800D8C081F0D9C082F0DAC083F0DBC084F0AB
:100D1800DCC085F0DDC086F0DEC087F0D3EC20F0C3
:100D28000001D8A09AEF06F09CEF06F0ABEF06F0B2
:100D3800CDB1A1EF06F0A3EF06F0ABEF06F0000E81
:100D4800DB6F000EDC6F000EDD6F000EDE6FE1C0A2
:100D580080F0E2C081F0E3C082F0E4C083F0DBC041
:100D680084F0DCC085F0DDC086F0DEC087F040ECA2
:100D780009F080C0D7F081C0D8F082C0D9F083C014
:100D8800DAF0D7C0A3F0D8C0A4F0D9C0A5F0DAC073
:100D9800A6F0000E00018E6F000E8F6F200E906F70
:100DA800410E916FC9C08AF0CAC08BF0CBC08CF0DD
:100DB800CCC08DF0C3EC0DF08AC0A7F08BC0A8F0B2
:100DC8008CC0A9F08DC0AAF0FAEC1BF00001D8A0E5
:100DD800F0EF06F0F2EF06F01AEF07F0E54BE62B1E
:100DE800C9C08AF0CAC08BF0CBC08CF0CCC08DF0E3
:100DF800000E8E6F000E8F6F200E906F410E916F58
:100E0800C3EC0DF08AC0C9F08BC0CAF08CC0CBF01F
:100E18008DC0CCF0660E0001D519D8A416EF07F0E6
:100E280018EF07F01AEF07F0C74BC82BC9C0E9F055
:100E3800CAC0EAF0CBC0EBF0CCC0ECF0650ED51917
:100E4800D8B429EF07F02BEF07F031EF07F0E5C032
:100E5800C5F0E6C0C6F035EF07F0000EC66F000E0D
:100E6800C56F000EC46F000EC36F000EC26F000E78
:100E7800C16F000EE06F000EDF6F32EF08F0D7C0D1
:100E880080F0D8C081F0D9C082F0DAC083F0E9C020
:100E980084F0EAC085F0EBC086F0ECC087F0EEEC99
:100EA80011F080C095F081C096F082C097F083C0A1
:100EB80098F008EC18F095C0DBF096C0DCF097C00D
:100EC800DDF098C0DEF0DBC032F0DCC033F0DDC00E
:100ED80034F0DEC035F076EC1BF032C0CDF033C014
:100EE800CEF048B87AEF07F07CEF07F09AEF07F0FA
:100EF8000001CD51CE11D8A484EF07F086EF07F09A
:100F08009AEF07F0670ED619D8A48DEF07F08FEF88
:100F180007F09AEF07F0C6BF96EF07F094EF07F0D7
:100F28009AEF07F0C14BC22BE5EF07F00001C35160
:100F3800C411D8A4A2EF07F0A4EF07F0CEEF07F092
:100F4800C6BFABEF07F0A9EF07F0CEEF07F0000E32
:100F5800E725D96E010EE821DA6E2E0EDF6EE74B1B
:100F6800E82BD307D8A0D407000EC46F010EC36FB7
:100F7800CEEF07F0000EE725D96E010EE821DA6EF4
:100F8800300EDF6EE74BE82BD307D8A0D407C10794
:100F9800D8A0C207C151C211D8A4D5EF07F0D7EF26
:100FA80007F0BEEF07F0000EE725D96E010EE82125
:100FB800DA6ECD51300FDF6EE74BE82BD307D8A0A0
:100FC800D407D7C0A3F0D8C0A4F0D9C0A5F0DAC020
:100FD800A6F0E9C08EF0EAC08FF0EBC090F0ECC04C
:100FE80091F0DBC08AF0DCC08BF0DDC08CF0DEC095
:100FF8008DF0C3EC0DF08AC0A7F08BC0A8F08CC0B0
:10100800A9F08DC0AAF0CFEC23F0A3C0D7F0A4C0FC
:10101800D8F0A5C0D9F0A6C0DAF0E9C080F0EAC0DF
:1010280081F0EBC082F0ECC083F0000E0001846F09
:10103800000E856F200E866F410E876FEEEC11F063
:1010480080C0E9F081C0EAF082C0EBF083C0ECF028
:101058000001C507D8A0C607DF4BE02BC751DF5DED
:10106800E051800AB66FC851800AB659D8B03FEF30
:1010780008F041EF08F04FEF08F0E8BF4DEF08F037
:10108800E85109E14B0EE75DD8A04DEF08F04FEFAE
:1010980008F043EF07F0C351C411D8A456EF08F085
:1010A80058EF08F069EF08F048A85DEF08F05FEF27
:1010B80008F069EF08F0000EE725D96E010EE82167
:1010C800DA6E2E0EDF6EE74BE82B000EE725D96EA1
:1010D800010EE821DA6E000EDF6E650ED519D8A470
:1010E80078EF08F07AEF08F0DAEF03F0000EE06F1F
:1010F8004F0EDF6F000EDF25D96E010EE021DA6E8C
:10110800000EDF6E000ED06F000ECF6FE6BF91EFBE
:1011180008F08FEF08F099EF08F0000ED06F010E7D
:10112800CF6FE56DE61FD8B0E62B000ED26F020E2A
:10113800D16FCAEF08F0DF07D8A0E007000EDF255F
:10114800D96E010EE021DA6EE5C032F0E6C033F068
:10115800000E356E0A0E346E7BEC20F03250300FE4
:10116800DF6EE5C032F0E6C033F0000E356E0A0ED1
:10117800346E18EC20F032C0E5F033C0E6F0000120
:10118800D107D8A0D207D307D8A0D407E551E611D4
:10119800D8A4D1EF08F0D3EF08F09FEF08F0D2BF42
:1011A800E0EF08F0D25106E1D105D8B0DEEF08F043
:1011B800E0EF08F09FEF08F0DF07D8A0E007CF5175
:1011C800D011D8A4EAEF08F0ECEF08F0F2EF08F03D
:1011D800000EBE6F2B0EBD6FF6EF08F0000EBE6F4F
:1011E8002D0EBD6F000EDF25D96E010EE021DA6EDF
:1011F800BDC0DFFFD307D8A0D407DF07D8A0E0071A
:10120800BF0EB66FFF0EB76FB551B86FB96BB65159
:10121800B827B751B923B95109E11A0EB85DD8A05A
:1012280018EF09F01AEF09F020EF09F0000EC06F6F
:10123800650EBF6F24EF09F0000EC06F450EBF6F3B
:10124800000EDF25D96E010EE021DA6EBFC0DFFF88
:10125800D307D8A0D407000EE725326E010EE82187
:10126800336E000EDF25346E010EE021356E05EC7D
:1012780023F0DAEF03F0120000018351800B886F2E
:10128800835183258A6F82AF4CEF09F04EEF09F046
:101298004FEF09F08A818A51D8B455EF09F057EF1A
:1012A80009F06CEF09F08A29D8A45DEF09F05FEF27
:1012B80009F067EF09F0000E806F000E816F000ED5
:1012C800826F000E836F828F000E836F74EF09F0B8
:1012D800000E806F000E816F000E826F000E836F0C
:1012E8008751800B896F88518919D8B47EEF09F02E
:1012F80080EF09F081EF09F0888D87518725896F84
:1013080086AF89EF09F08BEF09F08CEF09F089813E
:101318008951D8B492EF09F094EF09F0A9EF09F0D8
:101328008929D8A49AEF09F09CEF09F0A4EF09F0F5
:10133800000E846F000E856F000E866F000E876F9B
:10134800868F000E876FB1EF09F0000E846F000ED4
:10135800856F000E866F000E876F8A51895DD8B041
:10136800B8EF09F0BAEF09F0E1EF09F088ADBFEF87
:1013780009F0C1EF09F0C3EF09F0800E881B8AC09D
:101388008BF089C08AF08BC089F080C08BF084C054
:1013980080F08BC084F081C08BF085C081F08BC059
:1013A80085F082C08BF086C082F08BC086F083C047
:1013B8008BF087C083F08BC087F0000E8B6F8A514B
:1013C80089C032F0336A325E000E335A33BEF6EF0C
:1013D80009F0335009E11A0E325CD8A0F6EF09F093
:1013E800F8EF09F02FEF0AF0805181118211831173
:1013F800D8A401EF0AF004EF0AF0010E05EF0AF095
:10140800000E8B6F000E806F000E816F000E826FD2
:10141800000E836F89C08AF038EF0AF08BA117EFAE
:101428000AF019EF0AF01FEF0AF0D8908B31010982
:101438008B6F21EF0AF0D8908B3380A126EF0AF04A
:1014480028EF0AF029EF0AF08B8F83358333823334
:10145800813380338A2B89518A5DD8A036EF0AF010
:1014680038EF0AF012EF0AF088BD3DEF0AF03FEFBF
:101478000AF07FEF0AF08A51D8A445EF0AF047EF47
:101488000AF051EF0AF0000E806F000E816F000E17
:10149800826F000E836FA0EF0BF084518027855177
:1014A8008123865182238751832383A15EEF0AF02B
:1014B80060EF0AF00CEF0BF08BA165EF0AF067EF15
:1014C8000AF06DEF0AF0D8908B3101098B6F6FEF3E
:1014D8000AF0D8908B3380A174EF0AF076EF0AF007
:1014E80077EF0AF08B8F83358333823381338033F0
:1014F8008A2B0CEF0BF08451805D85518159865100
:1015080082598351800A326E8751800A3258D8B086
:1015180090EF0AF092EF0AF0BDEF0AF08051845D77
:10152800326E81518559336E82518659346E83519A
:101538008759356EFF0E3224806FFF0E3320816F7E
:10154800FF0E3420826FFF0E3520836F800E881BBC
:101558008B6D8B51D8A4B3EF0AF0B5EF0AF0C5EF45
:101568000AF0010E8027000E812382238323C5EF12
:101578000AF08451805F8551815B8651825B875177
:10158800835B8051811182118311D8A4CEEF0AF0B8
:10159800D0EF0AF005EF0BF08B51D8A4D6EF0AF084
:1015A800D8EF0AF005EF0BF0000E806F000E816F88
:1015B800000E826F000E836FA0EF0BF0D89080377B
:1015C8008137823783378BAFECEF0AF0EEEF0AF002
:1015D800EFEF0AF080818BA1F4EF0AF0F6EF0AF042
:1015E800FAEF0AF0D8808B37FCEF0AF0D8908B37E7
:1015F8008A51D8B402EF0BF004EF0BF005EF0BF0B3
:101608008A0782AF0AEF0BF00CEF0BF0E2EF0AF05B
:10161800000E896F8BAF13EF0BF015EF0BF02DEF6A
:101628000BF08BC032F07F0E3216D8B41EEF0BF0E1
:1016380020EF0BF024EF0BF0010E896F2DEF0BF06C
:1016480080A129EF0BF02BEF0BF02DEF0BF020EF23
:101658000BF08951D8B433EF0BF035EF0BF060EF96
:101668000BF0010E8027000E81238223832383A1A0
:1016780040EF0BF042EF0BF060EF0BF080C032F060
:1016880081C033F082C034F083C035F03534353250
:1016980034323332323232C080F033C081F034C059
:1016A80082F035C083F08A29D8B45DEF0BF05FEF84
:1016B8000BF060EF0BF08A2B8A29D8B466EF0BF099
:1016C80068EF0BF070EF0BF08A51D8A46EEF0BF0B7
:1016D80070EF0BF082EF0BF0000E806F000E816F41
:1016E800000E826F000E836F8A51D8A47EEF0BF034
:1016F80080EF0BF082EF0BF0000E886F8AA187EF66
:101708000BF089EF0BF08CEF0BF0828F8DEF0BF065
:10171800829FD8908A31836F88AF95EF0BF097EF4F
:101728000BF098EF0BF0838F80C080F081C081F0C0
:1017380082C082F083C083F01200EFC0D9FFF0C0EE
:10174800DAFFDECFF6FFDDCFF7FF0800F550250AF8
:10175800D8A4B1EF0BF0B3EF0BF0A7EF0DF0EFC08B
:10176800D9FFF0C0DAFFDE2A000EDD22000E476E38
:10177800000E466E46C048F047C049F00001FD69BA
:10178800FE69EFC0D9FFF0C0DAFFDECFF6FFDDCF8C
:10179800F7FF0800F5502E0AD8A4D5EF0BF0D7EFC5
:1017A8000BF048EF0CF0000EFE6F000EFD6FEFC05F
:1017B800D9FFF0C0DAFFDE2A000EDD22EFC0D9FF24
:1017C800F0C0DAFFDECFF6FFDDCFF7FF0800F550F7
:1017D8002A0AD8A4F2EF0BF0F4EF0BF011EF0CF09B
:1017E800EFC0D9FFF0C0DAFFDE2A000EDD22F1C01B
:1017F800D9FFF2C0DAFFDFCFF3F0020EDE26DFCF2B
:10180800F4F0000EDD22F3C0D9FFF4C0DAFFDECF1A
:10181800FDF0DDCFFEF048EF0CF0EFC0D9FFF0C0CF
:10182800DAFFDECF81F0DDCF82F0C9EC1AF081C09B
:10183800FDF082C0FEF028EF0CF0EFC0D9FFF0C039
:10184800DAFFDE2A000EDD22D00E0001F36FFF0E54
:10185800F46FEFC0D9FFF0C0DAFFDECFF6FFDDCFBF
:10186800F7FF0800F550F56FF66BF351F527F451C3
:10187800F623F65109E10A0EF55DD8A046EF0CF003
:1018880048EF0CF021EF0CF0EFC0D9FFF0C0DAFF01
:10189800DECFF6FFDDCFF7FF0800F550806F816BD4
:1018A80087EC23F0000180510101946F9451D8B462
:1018B80060EF0CF062EF0CF0A0EF0CF0EFC0D9FF76
:1018C800F0C0DAFFDECFF3F0DDCFF4F0010E000157
:1018D800F327000EF423F3C0F6FFF4C0F7FF080067
:1018E800F550806F816B87EC23F000018051010176
:1018F800956F9551D8B483EF0CF085EF0CF0A0EFFD
:101908000CF0EFC0D9FFF0C0DAFFDECFF3F0DDCF87
:10191800F4F0020E0001F327000EF423F3C0F6FFE3
:10192800F4C0F7FF0800F550806F816B87EC23F057
:10193800000180510101966F660E9419D8A4A7EF93
:101948000CF0A9EF0CF0E9EF0CF0EFC0D9FFF0C0F4
:10195800DAFFDECFF6FFDDCFF7FF0800F5CF97F10E
:10196800EFC0D9FFF0C0DAFFDE2A000EDD22F1C099
:10197800D9FFF2C0DAFFDFCFF3F0040EDE26DFCFA7
:10198800F4F0000EDD22F3C0D9FFF4C0DAFFDECF99
:1019980090F1DECF91F1DECF92F1DECF93F1EDC081
:1019A800AFF0EEC0B0F090C1B1F091C1B2F092C109
:1019B800B3F093C1B4F097C1B5F034EC03F0AFC005
:1019C800EDF0B0C0EEF0C2EF0DF0940E326E010EE5
:1019D800336E630E346E060E356E000E376E020ED1
:1019E800366EE0EC1EF032503310D8A4FEEF0CF047
:1019F80000EF0DF06FEF0DF0EFC0D9FFF0C0DAFF88
:101A0800DECFF3F0DDCFF4F0010E0001F327000E76
:101A1800F423F3C0F6FFF4C0F7FF0800F5CF97F101
:101A2800BF0EF36FFF0EF46FEFC0D9FFF0C0DAFFFF
:101A3800DECFF6FFDDCFF7FF0800F550F56FF66B48
:101A4800F351F527F451F623F65107E11A0EF55D27
:101A5800D8B031EF0DF033EF0DF04DEF0DF0F1C0D0
:101A6800D9FFF2C0DAFFDFCFF3F0040EDE26DFCFB6
:101A7800F4F0000EDD22F3C0D9FFF4C0DAFFDECFA8
:101A880090F1DECF91F1DECF92F1DECF93F165EFE9
:101A98000DF0F1C0D9FFF2C0DAFFDFCFF3F0040E8A
:101AA800DE26DFCFF4F0000EDD22F3C0D9FFF4C04C
:101AB800DAFFDECF90F1DECF91F1DECF92F1DECF0B
:101AC80093F1020EEFC0D9FFF0C0DAFFDE26000E58
:101AD800DD22D3EF0CF0EFC0D9FFF0C0DAFFDECF84
:101AE800F6FFDDCFF7FF0800F550250AD8A47FEFF1
:101AF8000DF081EF0DF099EF0DF0EFC0D9FFF0C0B8
:101B0800DAFFDE2A000EDD22000E336E250E326E5D
:101B1800EDC034F0EEC035F04DEC1FF0000E0001C2
:101B2800EE6F010EED6FC2EF0DF0EFC0D9FFF0C000
:101B3800DAFFDE2A000EDD22000E0001EE6F000E35
:101B4800ED6FC2EF0DF0EFC0D9FFF0C0DAFFDECFC6
:101B5800F6FFDDCFF7FF0800F550326E336AEDC0AF
:101B680034F0EEC035F04DEC1FF0EFC0D9FFF0C0F7
:101B7800DAFFDE2A000EDD2292EF0DF012000001DE
:101B88008D51800B966F8D518D259C6F8CAFCFEF4B
:101B98000DF0D1EF0DF0D2EF0DF09C819C51D8B42F
:101BA800D8EF0DF0DAEF0DF0EDEF0DF09C29D8A489
:101BB800E0EF0DF0E2EF0DF0EAEF0DF0000E8A6FA6
:101BC800000E8B6F000E8C6F000E8D6F8C8FF5EFF3
:101BD8000DF0000E8A6F000E8B6F000E8C6F000EDA
:101BE8008D6F9151800B961B91519125976F90AFF6
:101BF80000EF0EF002EF0EF003EF0EF09781975111
:101C0800D8B409EF0EF00BEF0EF01EEF0EF0972987
:101C1800D8A411EF0EF013EF0EF01BEF0EF0000E2C
:101C28008E6F000E8F6F000E906F000E916F908F69
:101C380026EF0EF0000E8E6F000E8F6F000E906F65
:101C4800000E916F9751D8B42CEF0EF02EEF0EF0D6
:101C580036EF0EF09C51D8A434EF0EF036EF0EF0AC
:101C680040EF0EF0000E8A6F000E8B6F000E8C6F27
:101C7800000E8D6FD8EF0FF090518A03F3CFA1F0CB
:101C8800F4CFA2F0A151986F996B9A6B9B6BA251FC
:101C98009D6F9E6B9F6BA06B8F518B03F3CFA1F051
:101CA800F4CFA2F0A1519827000E99239A239B23E1
:101CB800A2519D27000E9E239F23A0238E518C03A3
:101CC800F3CFA1F0F4CFA2F0A1519827000E9923E9
:101CD8009A239B23A2519D27000E9E239F23A02376
:101CE8009AC09BF099C09AF098C099F0986B8E5161
:101CF8008B03F3CFA1F0F4CFA2F0A1519827A25102
:101D08009923000E9A23000E9B238F518A03F3CF49
:101D1800A1F0F4CFA2F0A1519827A2519923000E67
:101D28009A23000E9B239AC09BF099C09AF098C002
:101D380099F0986B8E518A03F3CFA1F0F4CFA2F0FB
:101D4800A1519827A2519923000E9A23000E9B2394
:101D580090518B03F3CFA1F0F4CFA2F0A1519D27AE
:101D6800A2519E23000E9F23000EA0238F518C03A7
:101D7800F3CFA1F0F4CFA2F0A1519D27A2519E2349
:101D8800000E9F23000EA02390518C03F3CFA1F0E7
:101D9800F4CFA2F0A151926FA251936F946B956BFF
:101DA80094C095F093C094F092C093F0926B9251C6
:101DB8009D2793519E2394519F239551A02398C00A
:101DC80092F099C093F09AC094F09BC095F0190EC8
:101DD800F3EF0EF0D8909533943393339233E82E83
:101DE800EEEF0EF092519D2793519E2394519F231D
:101DF8009551A0239AC09BF099C09AF098C099F089
:101E0800986B97519CC092F0936B9227000E932386
:101E1800820E9225A16FFF0E9321A26F29EF0FF07A
:101E2800D8909D379E379F37A0379BAF1EEF0FF096
:101E380020EF0FF021EF0FF09D81D8909837993758
:101E48009A379B37A107D8A0A2079FAF2EEF0FF0B4
:101E580030EF0FF014EF0FF0000E976F9BAF37EFD6
:101E68000FF039EF0FF05DEF0FF0FF0E9815926F3E
:101E7800FF0E9915936FFF0E9A15946F7F0E9B15A1
:101E8800956F9251931194119511D8B44EEF0FF0AC
:101E980050EF0FF054EF0FF0010E976F5DEF0FF05A
:101EA8009DA159EF0FF05BEF0FF05DEF0FF050EFD2
:101EB8000FF09751D8B463EF0FF065EF0FF089EF8B
:101EC8000FF0010E9D27000E9E239F23A023A0A1A3
:101ED80070EF0FF072EF0FF089EF0FF09DC092F0E6
:101EE8009EC093F09FC094F0A0C095F095359533AF
:101EF80094339333923392C09DF093C09EF094C074
:101F08009FF095C0A0F0A14BA22BA2BF94EF0FF0B9
:101F1800A25108E1A129D8A094EF0FF096EF0FF095
:101F2800A0EF0FF0000E9D6F000E9E6F800E9F6F4A
:101F38007F0EA06FCEEF0FF0A2BFADEF0FF0A25152
:101F480006E1A105D8B0ABEF0FF0ADEF0FF0B9EF98
:101F58000FF0000E9D6F000E9E6F000E9F6F000E1B
:101F6800A06F000E966FCEEF0FF0A1C09CF0FF0E91
:101F78009D17FF0E9E177F0E9F17000EA0179CA19E
:101F8800C8EF0FF0CAEF0FF0CBEF0FF09F8FD8908C
:101F98009C31A06F9651A0139DC08AF09EC08BF013
:101FA8009FC08CF0A0C08DF012001250800B1B6EE9
:101FB80012501224216E11AEE4EF0FF0E6EF0FF08D
:101FC800E7EF0FF021802150D8B4EDEF0FF0EFEFDD
:101FD8000FF002EF10F02128D8A4F5EF0FF0F7EF7B
:101FE8000FF0FFEF0FF0000E0F6E000E106E000ED8
:101FF800116E000E126E118E0AEF10F0000E0F6EA9
:10200800000E106E000E116E000E126E1650800B30
:102018001B1A16501624206E15AE15EF10F017EF88
:1020280010F018EF10F020802050D8B41EEF10F0F8
:1020380020EF10F033EF10F02028D8A426EF10F08E
:1020480028EF10F030EF10F0000E136E000E146E33
:10205800000E156E000E166E158E3BEF10F0000E7A
:10206800136E000E146E000E156E000E166E2050C4
:10207800D8B441EF10F043EF10F04BEF10F02150BF
:10208800D8A449EF10F04BEF10F055EF10F0000E08
:102098000F6E000E106E000E116E000E126EEDEF38
:1020A80011F015500F02F3CF26F0F4CF27F0265089
:1020B8001C6E1D6A1E6A1F6A2750226E236A246AD4
:1020C800256A14501002F3CF26F0F4CF27F02650DB
:1020D8001C26000E1D221E221F2227502226000E1B
:1020E80023222422252213501102F3CF26F0F4CF05
:1020F80027F026501C26000E1D221E221F222750C4
:102108002226000E2322242225221EC01FF01DC0D5
:102118001EF01CC01DF01C6A13501002F3CF26F0ED
:10212800F4CF27F026501C2627501D22000E1E2211
:10213800000E1F2214500F02F3CF26F0F4CF27F021
:1021480026501C2627501D22000E1E22000E1F227C
:102158001EC01FF01DC01EF01CC01DF01C6A1350CD
:102168000F02F3CF26F0F4CF27F026501C26275075
:102178001D22000E1E22000E1F2215501002F3CF42
:1021880026F0F4CF27F02650222627502322000ECF
:102198002422000E252214501102F3CF26F0F4CF8A
:1021A80027F02650222627502322000E2422000E34
:1021B800252215501102F3CF26F0F4CF27F0265030
:1021C800176E2750186E196A1A6A19C01AF018C0C3
:1021D80019F017C018F0176A175022261850232232
:1021E800195024221A5025221CC017F01DC018F0BF
:1021F8001EC019F01FC01AF0190E08EF11F0D89080
:102208001A32193218321732E82E03EF11F017502C
:10221800222618502322195024221A5025221EC083
:102228001FF01DC01EF01CC01DF01C6A205021C0EC
:1022380017F0186A1726000E1822820E1724266E29
:10224800FF0E1820276E3EEF11F0D8902236233665
:10225800243625361FAE33EF11F035EF11F036EF87
:1022680011F02280D8901C361D361E361F362606E1
:10227800D8A0270624AE43EF11F045EF11F029EF5F
:1022880011F0000E206E1FAE4CEF11F04EEF11F062
:1022980072EF11F0FF0E1C14176EFF0E1D14186E4E
:1022A800FF0E1E14196E7F0E1F141A6E1750181089
:1022B80019101A10D8B463EF11F065EF11F069EF37
:1022C80011F0010E206E72EF11F022A06EEF11F0E6
:1022D80070EF11F072EF11F065EF11F02050D8B4E3
:1022E80078EF11F07AEF11F09EEF11F0010E22262F
:1022F800000E23222422252225A085EF11F087EF46
:1023080011F09EEF11F022C017F023C018F024C07E
:1023180019F025C01AF01A341A3219321832173245
:1023280017C022F018C023F019C024F01AC025F0F5
:10233800264A272A27BEA9EF11F0275008E12628A8
:10234800D8A0A9EF11F0ABEF11F0B5EF11F0000E26
:10235800226E000E236E800E246E7F0E256EE3EF34
:1023680011F027BEC2EF11F0275006E12604D8B0BD
:10237800C0EF11F0C2EF11F0CEEF11F0000E226E97
:10238800000E236E000E246E000E256E000E1B6ECE
:10239800E3EF11F026C021F0FF0E2216FF0E2316E0
:1023A8007F0E2416000E251621A0DDEF11F0DFEFB9
:1023B80011F0E0EF11F0248ED8902130256E1B50DB
:1023C800251222C00FF023C010F024C011F025C040
:1023D80012F0120000018351800B8C6F835183250A
:1023E800936F82AFFAEF11F0FCEF11F0FDEF11F0EF
:1023F80093819351D8B403EF12F005EF12F01AEF5E
:1024080012F09329D8A40BEF12F00DEF12F015EF8C
:1024180012F0000E806F000E816F000E826F000EAA
:10242800836F828F000E836F22EF12F0000E806F91
:10243800000E816F000E826F000E836F8751800B34
:102448008C1B87518725946F86AF2DEF12F02FEFE5
:1024580012F030EF12F094819451D8B436EF12F0A4
:1024680038EF12F04DEF12F09429D8A43EEF12F095
:1024780040EF12F048EF12F0000E846F000E856FE7
:10248800000E866F000E876F868F000E876F55EFE0
:1024980012F0000E846F000E856F000E866F000E1E
:1024A800876F8451851186118711D8A45EEF12F0C9
:1024B80060EF12F078EF12F0000E806F000E816F5F
:1024C800000E826F000E836F800E82137F0E8313BF
:1024D8008C51831380C080F081C081F082C082F06B
:1024E80083C083F0BBEF13F09351D8A47EEF12F0B2
:1024F80080EF12F08AEF12F0000E806F000E816FED
:10250800000E826F000E836FBBEF13F0945193C0DF
:1025180032F0336A325E000E335A7F0E32248D6FEA
:10252800000E33208E6F80C088F081C089F082C091
:102538008AF083C08BF0000E806F000E816F000E52
:10254800826F000E836F000E8F6F000E906F000E6B
:10255800916F000E926F000E946FEBEF12F0945192
:10256800D8B4B9EF12F0BBEF12F0D2EF12F0D89056
:10257800883789378A378B37D890803781378237C1
:10258800833792AFCAEF12F0CCEF12F0CDEF12F012
:102598008081D8908F379037913792378451885DF2
:1025A8008551895986518A5987518B59D8A0DFEFAF
:1025B80012F0E1EF12F0EAEF12F0928D8451885F89
:1025C8008551895B86518A5B87518B5B942B190EE9
:1025D8009465F1EF12F0F3EF12F0B3EF12F08851B7
:1025E80089118A118B11D8B4FCEF12F0FEEF12F0AA
:1025F80016EF13F08F8116EF13F0D89080378137DC
:102608008237833792AF0BEF13F00DEF13F00EEF15
:1026180013F08081D8908F379037913792378D0794
:10262800D8A08E0782AF1BEF13F01DEF13F001EF58
:1026380013F0000E946F92AF24EF13F026EF13F00F
:102648004AEF13F0FF0E8F15326EFF0E9015336EA2
:10265800FF0E9115346E7F0E9215356E3250331081
:1026680034103510D8B43BEF13F03DEF13F041EFC1
:1026780013F0010E946F4AEF13F080A146EF13F0A8
:1026880048EF13F04AEF13F03DEF13F09451D8B42C
:1026980050EF13F052EF13F076EF13F0010E80278E
:1026A800000E81238223832383A15DEF13F05FEF64
:1026B80013F076EF13F080C032F081C033F082C09F
:1026C80034F083C035F03534353234323332323277
:1026D80032C080F033C081F034C082F035C083F05E
:1026E8008D4B8E2B8EBF81EF13F08E5108E18D2913
:1026F800D8A081EF13F083EF13F08EEF13F0000EE4
:102708008E6F8D69000E806F000E816F000E826FD4
:10271800000E836F8EBF9BEF13F08E5106E18D057F
:10272800D8B099EF13F09BEF13F0A9EF13F0000E58
:102738008E6F000E8D6F000E806F000E816F000E81
:10274800826F000E836F000E8C6F8DC093F093A183
:10275800B0EF13F0B2EF13F0B5EF13F0828FB6EFCE
:1027680013F0829FD8909331836F6CEF12F01200B0
:102778000450800B116E04500424186E03AEC7EF8A
:1027880013F0C9EF13F0CAEF13F018801850D8B43B
:10279800D0EF13F0D2EF13F0E7EF13F01828D8A416
:1027A800D8EF13F0DAEF13F0E2EF13F0000E016E3A
:1027B800000E026E000E036E000E046E038E000EF5
:1027C800046EEFEF13F0000E016E000E026E000EA5
:1027D800036E000E046E0850800B111A085008246E
:1027E800196E07AEFAEF13F0FCEF13F0FDEF13F0DC
:1027F80019801950D8B403EF14F005EF14F01AEF4C
:1028080014F01928D8A40BEF14F00DEF14F015EFFD
:1028180014F0000E056E000E066E000E076E000E18
:10282800086E078E000E086E22EF14F0000E056E7B
:10283800000E066E000E076E000E086E055006109C
:1028480007100810D8A42BEF14F02DEF14F045EF63
:1028580014F0000E016E000E026E000E036E000EE4
:10286800046E800E03127F0E04121150041201C070
:1028780001F002C002F003C003F004C004F088EFC6
:1028880015F01850D8A44BEF14F04DEF14F057EF93
:1028980014F0000E016E000E026E000E036E000EA4
:1028A800046E88EF15F0195018C009F00A6A095E1D
:1028B800000E0A5A7F0E0924126E000E0A20136EAB
:1028C80001C00DF002C00EF003C00FF004C010F0FC
:1028D800000E016E000E026E000E036E000E046EF6
:1028E800000E146E000E156E000E166E000E176E9A
:1028F800000E196EB8EF14F01950D8B486EF14F022
:1029080088EF14F09FEF14F0D8900D360E360F367E
:102918001036D890013602360336043617AE97EFD4
:1029280014F099EF14F09AEF14F00180D89014364F
:1029380015361636173605500D5C06500E580750DA
:102948000F5808501058D8A0ACEF14F0AEEF14F0A0
:10295800B7EF14F0178C05500D5E06500E5A07504D
:102968000F5A0850105A192A190E1964BEEF14F09C
:10297800C0EF14F080EF14F00D500E100F1010106F
:10298800D8B4C9EF14F0CBEF14F0E3EF14F01480CF
:10299800E3EF14F0D890013602360336043617AE4A
:1029A800D8EF14F0DAEF14F0DBEF14F00180D890D0
:1029B80014361536163617361206D8A0130603AE87
:1029C800E8EF14F0EAEF14F0CEEF14F0000E196EF1
:1029D80017AEF1EF14F0F3EF14F017EF15F0FF0E48
:1029E8001414096EFF0E15140A6EFF0E16140B6EE2
:1029F8007F0E17140C6E09500A100B100C10D8B467
:102A080008EF15F00AEF15F00EEF15F0010E196E2C
:102A180017EF15F001A013EF15F015EF15F017EFEC
:102A280015F00AEF15F01950D8B41DEF15F01FEF87
:102A380015F043EF15F0010E0126000E02220322C5
:102A4800042204A02AEF15F02CEF15F043EF15F03F
:102A580001C009F002C00AF003C00BF004C00CF07A
:102A68000C340C320B320A32093209C001F00AC0A8
:102A780002F00BC003F00CC004F0124A132A13BE74
:102A88004EEF15F0135008E11228D8A04EEF15F0BC
:102A980050EF15F05BEF15F0000E136E1268000E84
:102AA800016E000E026E000E036E000E046E13BE61
:102AB80068EF15F0135006E11204D8B066EF15F070
:102AC80068EF15F076EF15F0000E136E000E126E1B
:102AD800000E016E000E026E000E036E000E046EF4
:102AE800000E116E12C018F018A07DEF15F07FEFE0
:102AF80015F082EF15F0038E83EF15F0039ED89042
:102B08001830046E39EF14F012004A504B10D8A454
:102B180090EF15F092EF15F0CFEF16F0F9C080F0B6
:102B2800FAC081F0FBC082F0FCC083F0000E000107
:102B3800846F000E856F000E866F000E876FD3ECD2
:102B480020F00001D8A0ABEF15F0ADEF15F0B9EF0C
:102B580015F082808282829482868298829A000E00
:102B68004B6E000E4A6ECFEF16F0000EA36F000EEC
:102B7800A46F000EA56F000EA66FF9C0A7F0FAC0EB
:102B8800A8F0FBC0A9F0FCC0AAF0FAEC1BF0000109
:102B9800D8B0D1EF15F0D3EF15F0F5EF15F0000E22
:102BA800A36F400EA46F1C0EA56F440EA66FF9C04C
:102BB800A7F0FAC0A8F0FBC0A9F0FCC0AAF0FAEC94
:102BC8001BF00001D8A0EBEF15F0EDEF15F0F5EFD5
:102BD80015F082808282829482868298829ACFEFD0
:102BE80016F0000EA36F400EA46F1C0EA56F440EC6
:102BF800A66FF9C0A7F0FAC0A8F0FBC0A9F0FCC006
:102C0800AAF0FAEC1BF00001D8B00DEF16F00FEFA8
:102C180016F031EF16F0000EA36F400EA46F9C0E55
:102C2800A56F440EA66FF9C0A7F0FAC0A8F0FBC0C4
:102C3800A9F0FCC0AAF0FAEC1BF00001D8A027EF1D
:102C480016F029EF16F031EF16F082808282829416
:102C580082868288829ACFEF16F0000EA36F400E0C
:102C6800A46F9C0EA56F440EA66FF9C0A7F0FAC01A
:102C7800A8F0FBC0A9F0FCC0AAF0FAEC1BF0000118
:102C8800D8B049EF16F04BEF16F06DEF16F0000EC6
:102C9800A36F600EA46FEA0EA56F440EA66FF9C06D
:102CA800A7F0FAC0A8F0FBC0A9F0FCC0AAF0FAECA3
:102CB8001BF00001D8A063EF16F065EF16F06DEF7A
:102CC80016F082808282828482968288828ACFEFFE
:102CD80016F0000EA36F600EA46FEA0EA56F440EE7
:102CE800A66FF9C0A7F0FAC0A8F0FBC0A9F0FCC015
:102CF800AAF0FAEC1BF00001D8B085EF16F087EFC8
:102D080016F0A9EF16F0F9C0A3F0FAC0A4F0FBC0C2
:102D1800A5F0FCC0A6F0000EA76F400EA86F1C0E11
:102D2800A96F450EAA6FFAEC1BF00001D8B09FEF0F
:102D380016F0A1EF16F0A9EF16F082908292828425
:102D480082968298828ACFEF16F0F9C080F0FAC096
:102D580081F0FBC082F0FCC083F0000E846F400E4F
:102D6800856F1C0E866F450E876FD3EC20F000012F
:102D7800D8A0C1EF16F0C3EF16F0CFEF16F082908F
:102D88008292828482968298828A000E4B6E010E0D
:102D98004A6ECFEF16F012004A044B10D8A4D7EFB2
:102DA80016F0D9EF16F007EF18F08290829282841D
:102DB800F9C080F0FAC081F0FBC082F0FCC083F05B
:102DC800000E0001846F000E856F000E866F000EE6
:102DD800876FD3EC20F00001D8A0F5EF16F0F7EFDD
:102DE80016F000EF17F082868298829A000E4B6EDA
:102DF800000E4A6E07EF18F0000EA36F000EA46FC6
:102E0800000EA56F000EA66FF9C0A7F0FAC0A8F0D3
:102E1800FBC0A9F0FCC0AAF0FAEC1BF00001D8B086
:102E280018EF17F01AEF17F039EF17F0000EA36F2D
:102E3800400EA46F1C0EA56F440EA66FF9C0A7F034
:102E4800FAC0A8F0FBC0A9F0FCC0AAF0FAEC1BF08D
:102E58000001D8A032EF17F034EF17F039EF17F070
:102E680082868298829A07EF18F0000EA36F400EB0
:102E7800A46F1C0EA56F440EA66FF9C0A7F0FAC088
:102E8800A8F0FBC0A9F0FCC0AAF0FAEC1BF0000106
:102E9800D8B051EF17F053EF17F072EF17F0000E9C
:102EA800A36F400EA46F9C0EA56F440EA66FF9C0C9
:102EB800A7F0FAC0A8F0FBC0A9F0FCC0AAF0FAEC91
:102EC8001BF00001D8A06BEF17F06DEF17F072EF51
:102ED80017F082868288829A07EF18F0000EA36F97
:102EE800400EA46F9C0EA56F440EA66FF9C0A7F004
:102EF800FAC0A8F0FBC0A9F0FCC0AAF0FAEC1BF0DD
:102F08000001D8B08AEF17F08CEF17F0ABEF17F08D
:102F1800000EA36F600EA46FEA0EA56F440EA66F95
:102F2800F9C0A7F0FAC0A8F0FBC0A9F0FCC0AAF04D
:102F3800FAEC1BF00001D8A0A4EF17F0A6EF17F0E9
:102F4800ABEF17F082968288829A07EF18F0000E8E
:102F5800A36F600EA46FEA0EA56F440EA66FF9C0AA
:102F6800A7F0FAC0A8F0FBC0A9F0FCC0AAF0FAECE0
:102F78001BF00001D8B0C3EF17F0C5EF17F0E8EF6A
:102F880017F0F9C0A3F0FAC0A4F0FBC0A5F0FCC08C
:102F9800A6F0000EA76F400EA86F1C0EA96F450E75
:102FA800AA6FFAEC1BF00001D8B0DDEF17F0DFEFE5
:102FB80017F0E8EF17F082968288828A000E4B6E2F
:102FC800010E4A6E07EF18F0F9C080F0FAC081F0E0
:102FD800FBC082F0FCC083F0000E846F400E856F4A
:102FE8001C0E866F450E876FD3EC20F00001D8A029
:102FF80000EF18F002EF18F007EF18F082968298A9
:10300800828AE2EF17F0120038C0A5F039C0A6F0A6
:103018003AC0A7F03BC0A8F095C0A5F096C0A6F0AE
:1030280097C0A7F098C0A8F0810E0001996FFF0E15
:103038009A6FA5C09BF0A6C09CF0A7C09DF0A8C041
:103048009EF0180E2DEF18F0D8909E339D339C33C8
:103058009B33E82E28EF18F09B519925A36F000E9B
:103068009A21A46FA4BF42EF18F0A45109E1170EEA
:10307800A35DD8A042EF18F044EF18F04EEF18F017
:1030880095C095F096C096F097C097F098C098F0C4
:1030980012EF19F0A4BF53EF18F055EF18F0C6EF70
:1030A80018F0A3C099F0FF0E9A6FFF0E9B6F7F0E6A
:1030B8009C6F000E9D6F996764EF18F06CEF18F025
:1030C8009D359D339C339B339A33992F5FEF18F0CE
:1030D8009AC09FF09BC0A0F09CC0A1F09DC0A2F038
:1030E80000019F51A515996FA051A6159A6FA1517E
:1030F800A7159B6FA251A8159C6F99519A119B1106
:103108009C11D8A48AEF18F08CEF18F08EEF18F005
:1031180044EF18F0A5C099F0A6C09AF0A7C09BF09C
:10312800A8C09CF0200E9EEF18F0D8909C339B33DB
:103138009A339933E82E99EF18F099519A119B1107
:103148009C11D8B4AAEF18F0ACEF18F0B4EF18F04F
:103158009F51A527A051A623A151A723A251A82377
:103168009F1D996FA01D9A6FA11D9B6FA21D9C6F3B
:103178009951A5179A51A6179B51A7179C51A817A3
:103188000AEF19F0A5C099F0A6C09AF0A7C09BF065
:10319800A8C09CF0200ED6EF18F0D8909C339B3333
:1031A8009A339933E82ED1EF18F099519A119B115F
:1031B8009C11D8A4E2EF18F0E4EF18F0EEEF18F045
:1031C800000EA56F000EA66F000EA76F000EA86F69
:1031D8000AEF19F0D890A535996FA6359A6FA735DB
:1031E8009B6FA8359C6F99519A119B119C11D8B46B
:1031F80000EF19F002EF19F00AEF19F0000EA56FB1
:10320800000EA66F800EA76FBF0EA86FA5C095F021
:10321800A6C096F0A7C097F0A8C098F012000001C9
:10322800846F00018451D8B41CEF19F01EEF19F017
:1032380040EF19F035BE25EF19F023EF19F040EFF4
:1032480019F032C080F033C081F034C082F035C04C
:1032580083F0801F811F821F831F802B000E812314
:103268008223832380C086F081C087F082C088F0E3
:1032780083C089F048EF19F032C086F033C087F078
:1032880034C088F035C089F032503310341035100E
:10329800D8A451EF19F053EF19F05DEF19F0000EB3
:1032A800326E000E336E000E346E000E356EEEEF89
:1032B80019F0960E856F67EF19F0852BD890893332
:1032C800883387338633000E8615806F000E871586
:1032D800816F000E8815826FFE0E8915836F8051ED
:1032E800811182118311D8A47CEF19F07EEF19F0B7
:1032F80061EF19F08CEF19F0852B010E8627000E6F
:10330800872388238923D890893388338733863362
:10331800000E8615806F000E8715816F000E8815C8
:10332800826FFF0E8915836F80518111821183117D
:10333800D8A4A1EF19F0A3EF19F080EF19F0ABEFC3
:1033480019F08507D890863787378837893788BF37
:10335800B0EF19F0B2EF19F0BAEF19F0020E85616B
:10336800B8EF19F0BAEF19F0A5EF19F085B1BFEF72
:1033780019F0C1EF19F0C2EF19F0889FD890853382
:1033880085C080F0816B826B836B80C083F0826B19
:10339800816B806B8051861381518713825188130A
:1033A800835189138451D8B4DCEF19F0DEEF19F09A
:1033B800E6EF19F035BEE5EF19F0E3EF19F0E6EFA7
:1033C80019F0898F86C032F087C033F088C034F096
:1033D80089C035F01200096E0950D8B4F6EF19F01B
:1033E800F8EF19F01AEF1AF004BEFFEF19F0FDEF2D
:1033F80019F01AEF1AF001C005F002C006F003C078
:1034080007F004C008F0051E061E071E081E052A40
:10341800000E06220722082205C00BF006C00CF099
:1034280007C00DF008C00EF022EF1AF001C00BF033
:1034380002C00CF003C00DF004C00EF001500210E1
:1034480003100410D8A42BEF1AF02DEF1AF037EF61
:103458001AF0000E016E000E026E000E036E000ED2
:10346800046EC8EF1AF0960E0A6E41EF1AF00A2A97
:10347800D8900E320D320C320B32000E0B14056E42
:10348800000E0C14066E000E0D14076EFE0E0E14C0
:10349800086E0550061007100810D8A456EF1AF049
:1034A80058EF1AF03BEF1AF066EF1AF00A2A010EED
:1034B8000B26000E0C220D220E22D8900E320D3251
:1034C8000C320B32000E0B14056E000E0C14066E37
:1034D800000E0D14076EFF0E0E14086E0550061030
:1034E80007100810D8A47BEF1AF07DEF1AF05AEFF6
:1034F8001AF085EF1AF00A06D8900B360C360D36FE
:103508000E360DBE8AEF1AF08CEF1AF094EF1AF00F
:10351800020E0A6092EF1AF094EF1AF07FEF1AF099
:103528000AB099EF1AF09BEF1AF09CEF1AF00D9E73
:10353800D8900A320AC005F0066A076A086A05C008
:1035480008F0076A066A056A05500B1206500C1245
:1035580007500D1208500E120950D8B4B6EF1AF0E1
:10356800B8EF1AF0C0EF1AF004BEBFEF1AF0BDEFC3
:103578001AF0C0EF1AF00E8E0BC001F00CC002F06A
:103588000DC003F00EC004F01200000E00018A6F97
:10359800000E896F000E886F000E876FD6EF1AF045
:1035A800814B822B81C0F6FF82C0F7FF0800F550DF
:1035B800200AD8B4E2EF1AF0E4EF1AF0D4EF1AF0C8
:1035C800F70E836FFF0E846F81C0F6FF82C0F7FF8E
:1035D8000800F550856F866B8351852784518623B3
:1035E800865109E1050E855DD8A0FDEF1AF0FFEFC1
:1035F8001AF0D4EF1AF009EF1BF0000E886F010ED5
:10360800876F814B822B3FEF1BF081C0F6FF82C092
:10361800F7FF0800F550836F846B8451000AD8B413
:1036280018EF1BF03FEF1BF083512B0AD8B405EFBE
:103638001BF0060AD8B401EF1BF03FEF1BF089C05E
:1036480032F08AC033F0000E356E0A0E346EC6ECC6
:1036580024F081C0F6FF82C0F7FF0800F550325E03
:10366800000E335A300E32240001896F000E3320C9
:103678008A6F05EF1BF0D00E836FFF0E846F81C039
:10368800F6FF82C0F7FF0800F550856F866B8351FF
:10369800852784518623865109E10A0E855DD8A0C5
:1036A80058EF1BF05AEF1BF023EF1BF087518811DE
:1036B800D8A461EF1BF063EF1BF071EF1BF089C01A
:1036C80083F08AC084F0831F841F834B842B83C0BC
:1036D80081F084C082F075EF1BF089C081F08AC048
:1036E80082F0120034343534376E3750D8A47FEF67
:1036F8001BF081EF1BF08BEF1BF0000E326E000EFB
:10370800336E000E346E000E356EF9EF1BF032C0CA
:1037180080F033C081F034C082F035C083F0200ED1
:103728009CEF1BF00001D8908333823381338033C0
:10373800E82E96EF1BF08051366E348EFF0E32164F
:10374800FF0E3316FF0E3416000E3516960E375E32
:1037580037BEB3EF1BF0B1EF1BF0C9EF1BF03750CA
:10376800800A970FD8B0BBEF1BF0BDEF1BF0BFEF7F
:103778001BF081EF1BF0D8903532343233323232BD
:10378800373EBFEF1BF0E1EF1BF01F0E3764CFEFA2
:103798001BF0D1EF1BF0D9EF1BF081EF1BF0D89095
:1037A800323633363436353637063750D8A4DFEF5D
:1037B8001BF0E1EF1BF0D3EF1BF03650D8B4E7EF66
:1037C8001BF0E9EF1BF0F1EF1BF0351E341E331E22
:1037D800326C000E33223422352232C032F033C02C
:1037E80033F034C034F035C035F01200000E00015B
:1037F800A315AB6F000EA415AC6F800EA515AD6FA9
:103808007F0EA615AE6FAB51AC11AD11AE11D8A499
:1038180010EF1CF012EF1CF01AEF1CF0000EA36F53
:10382800000EA46F000EA56F000EA66F000EA71560
:10383800AB6F000EA815AC6F800EA915AD6F7F0E8B
:10384800AA15AE6FAB51AC11AD11AE11D8A42FEFC4
:103858001CF031EF1CF039EF1CF0000EA76F000EC2
:10386800A86F000EA96F000EAA6FA6AF3EEF1CF05E
:1038780040EF1CF049EF1CF0A36DA41FD8B0A42B97
:10388800A51FD8B0A52B800EA657AAAF4EEF1CF0E7
:1038980050EF1CF059EF1CF0A76DA81FD8B0A82B4B
:1038A800A91FD8B0A92B800EAA57000EA31B000E83
:1038B800A41B000EA51B800EA61B000EA71B000E46
:1038C800A81B000EA91B800EAA1BA751A35DA85117
:1038D800A459A951A559AA51A659D8B076EF1CF0F8
:1038E80078EF1CF07BEF1CF0D8907CEF1CF0D880B0
:1038F8001200000E0114096E000E02140A6E800EEA
:1039080003140B6E7F0E04140C6E09500A100B1072
:103918000C10D8A492EF1CF094EF1CF09CEF1CF054
:10392800000E016E000E026E000E036E000E046E95
:10393800000E0514096E000E06140A6E800E071498
:103948000B6E7F0E08140C6E09500A100B100C1029
:10395800D8A4B1EF1CF0B3EF1CF0BBEF1CF0000EC5
:10396800056E000E066E000E076E000E086E04AEA1
:10397800C0EF1CF0C2EF1CF0CBEF1CF0016C021E74
:10398800D8B0022A031ED8B0032A800E045608AE07
:10399800D0EF1CF0D2EF1CF0DBEF1CF0056C061E1C
:1039A800D8B0062A071ED8B0072A800E0856000E7F
:1039B800011A000E021A000E031A800E041A000ED5
:1039C800051A000E061A000E071A800E081A05506E
:1039D800015C065002580750035808500458D8B0E4
:1039E800F8EF1CF0FAEF1CF0FDEF1CF0D890FEEF9A
:1039F8001CF0D88012003CC086F03DC087F03EC065
:103A080088F03FC089F032C086F033C087F034C0F8
:103A180088F035C089F086C080F087C081F088C002
:103A280082F089C083F0180E20EF1DF00001D890B5
:103A38008333823381338033E82E1AEF1DF08051AF
:103A4800846F856B84518511D8A42DEF1DF02FEF5D
:103A58001DF04FEF1DF0D8908635806F8735816F48
:103A68008835826F8935836F805181118211831166
:103A7800D8A441EF1DF043EF1DF049EF1DF0000EF3
:103A8800336E020E326E7EEF1DF0000E336E030EA3
:103A9800326E7EEF1DF084298511D8A456EF1DF0F3
:103AA80058EF1DF07AEF1DF086C080F087C081F0D6
:103AB80088C082F089C083F0090ED890803781379A
:103AC80082378337E82E61EF1DF080518111821112
:103AD8008311D8B472EF1DF075EF1DF0010E76EF6B
:103AE8001DF0000E326E336A7EEF1DF0000E336E4D
:103AF800040E326E12000600E1CF2AF0E2CF2BF05E
:103B0800F3CF2CF0F4CF2DF0F6CF2EF0F7CF2FF027
:103B1800F8CF30F0F5CF31F0F2A295EF1DF097EF26
:103B28001DF0EAEF1DF0D0EF1DF095EC24F05BECF2
:103B380022F082908292828482968298829A030EE0
:103B4800296E080E286E770EE82EFED7282EFCD791
:103B5800292EFAD700F082868288828A030E296E7F
:103B6800080E286E770EE82EFED7282EFCD7292EB1
:103B7800FAD700F0010E076E230E086E060E096EC6
:103B8800010E7CEC21F0010E076E010E086E060E88
:103B9800096E020E7CEC21F0000E016E000E026E22
:103BA800000E036E000E046EF9C005F0FAC006F0B0
:103BB800FBC007F0FCC008F07DEC1CF0D8A0E7EFD4
:103BC8001DF0E9EF1DF099EF1DF0F29231C0F5FFFD
:103BD80030C0F8FF2FC0F7FF2EC0F6FF2DC0F4FF4E
:103BE8002CC0F3FF2BC0E2FF2AC0E1FF4E92110068
:103BF800356E100E326E3550D9EC24F0346E343AEE
:103C080083503418EF0B3418836E200E326E355003
:103C1800D9EC24F0346E343A344683503418DF0B30
:103C28003418836E400E326E3550D9EC24F0346E61
:103C3800343A3446344683503418BF0B3418836EF4
:103C4800800E326E3550D9EC24F0346E3432343272
:103C5800835034187F0B3418836E84848494420E06
:103C6800E82EFED700D0010E326E3550D9EC24F084
:103C7800346E343A83503418EF0B3418836E020EC6
:103C8800326E3550D9EC24F0346E343A34468350D1
:103C98003418DF0B3418836E040E326E3550D9ECAD
:103CA80024F0346E343A3446344683503418BF0B0B
:103CB8003418836E080E326E3550D9EC24F0346E09
:103CC80034323432835034187F0B3418836E848432
:103CD80084941200046E100E016E0450E9EC24F076
:103CE800036E033A83500318EF0B0318836E200EFC
:103CF800016E0450E9EC24F0036E033A0346835046
:103D08000318DF0B0318836E400E016E0450E9ECB4
:103D180024F0036E033A0346034683500318BF0B8F
:103D28000318836E800E016E0450E9EC24F0036ED4
:103D380003320332835003187F0B0318836E848485
:103D48008494420EE82EFED700D0010E016E045076
:103D5800E9EC24F0036E033A83500318EF0B0318C1
:103D6800836E020E016E0450E9EC24F0036E033AF0
:103D7800034683500318DF0B0318836E040E016E8D
:103D88000450E9EC24F0036E033A034603468350DB
:103D98000318BF0B0318836E080E016E0450E9EC7C
:103DA80024F0036E03320332835003187F0B031889
:103DB800836E84848494120032C081F033C082F010
:103DC80034C083F035C084F03606D8A037063628CC
:103DD80006E13728D8A4F3EF1EF0F5EF1EF002EF46
:103DE8001FF0000E336E000E326E4CEF1FF0814B49
:103DF800822B834B842B3606D8A0370681C0D9FF87
:103E080082C0DAFFDF50D8B40CEF1FF00EEF1FF0BE
:103E18003AEF1FF083C0F6FF84C0F7FF0800F550A3
:103E28000009D8B41AEF1FF01CEF1FF03AEF1FF08B
:103E380036503710D8B423EF1FF025EF1FF03AEFB4
:103E48001FF081C0D9FF82C0DAFFDF500001806F08
:103E580083C0F6FF84C0F7FF0800F5508019D8B476
:103E680038EF1FF03AEF1FF0FBEF1EF081C0D9FFCB
:103E780082C0DAFFDF500001806F83C0F6FF84C084
:103E8800F7FF0800F550805D326E336AD8A033061C
:103E9800120034503510D8B454EF1FF056EF1FF00D
:103EA8005FEF1FF034503510D8A45DEF1FF05FEFBF
:103EB8001FF064EF1FF032502DEC25F0B3EF1FF028
:103EC80020EE09F03450D9263550DA22DE50DE10C3
:103ED800D8B471EF1FF073EF1FF08FEF1FF020EED3
:103EE80009F03450D9263550DA2210EE03F0345058
:103EF800E1263550E222DE50E65CE650800A0001F9
:103F0800846FDE50800A8459D8B08DEF1FF08FEF90
:103F18001FF0B3EF1FF020EE03F03450D9263550D0
:103F2800DA22DECF80F0DDCF81F034C0D9FF35C092
:103F3800DAFFDECF82F0DDCF83F0000180518225E9
:103F4800D96E81518321DA6E32C0DFFF20EE03F093
:103F58003450D9263550DA22DE2A000EDD2212002E
:103F680048A0B9EF1FF0BBEF1FF0C5EF1FF08EC0E0
:103F780085F08FC086F08CC087F08DC088F0ABECE0
:103F880023F0000191BFCBEF1FF0CDEF1FF0D3EF6F
:103F98001FF090C094F091C095F0D7EF1FF0000E7D
:103FA800956F000E946F000E936F000E926FEAEFFC
:103FB8001FF0000E336E200E326E8CC034F08DC0B0
:103FC80035F04DEC1FF00001924B932B9451925D0C
:103FD8009351800A366E9551800A3658D8A0F7EF6B
:103FE8001FF0F9EF1FF0DDEF1FF048B0FEEF1FF0F4
:103FF80000EF20F00AEF20F08EC085F08FC086F029
:104008008CC087F08DC088F0ABEC23F08EC032F006
:104018008FC033F047EC24F00001945132248C6FA8
:10402800955133208D6F1200000E0001816F35BE4F
:1040380022EF20F020EF20F028EF20F0346C351E1E
:10404800D8B0352A010E816F33BE2FEF20F02DEF47
:1040580020F035EF20F0326C331ED8B0332A010E31
:10406800811B000E836F000E826F34503510D8B458
:1040780040EF20F042EF20F06AEF20F0010E806F51
:104088004AEF20F0D89034363536802B35AE4FEFD6
:1040980020F051EF20F046EF20F0D8908237833798
:1040A8003450325C35503358D8A05DEF20F05FEFC4
:1040B80020F064EF20F03450325E3550335A82815C
:1040C800D89035323432802F51EF20F08151D8B456
:1040D80070EF20F072EF20F076EF20F0826D831FF2
:1040E800D8B0832B82C032F083C033F01200000EA8
:1040F800376E33BE84EF20F082EF20F08AEF20F095
:10410800326C331ED8B0332A010E376E35BE91EFAC
:1041180020F08FEF20F095EF20F0346C351ED8B0EA
:10412800352A34503510D8B49CEF20F09EEF20F09B
:10413800C2EF20F0010E366EA6EF20F0D89034368C
:104148003536362A35AEABEF20F0ADEF20F0A2EFD2
:1041580020F03450325C35503358D8A0B6EF20F0F8
:10416800B8EF20F0BCEF20F03450325E3550335AAF
:10417800D89035323432362EADEF20F03750D8B4DF
:10418800C8EF20F0CAEF20F0CEEF20F0326C331EDB
:10419800D8B0332A32C032F033C033F01200000EE8
:1041A80000018015326E000E8115336E800E821567
:1041B800346E7F0E8315356E32503310341035103F
:1041C800D8A4E9EF20F0EBEF20F0F3EF20F0000E99
:1041D800806F000E816F000E826F000E836F000EDD
:1041E8008415326E000E8515336E800E8615346E7A
:1041F8007F0E8715356E3250331034103510D8A421
:1042080008EF21F00AEF21F012EF21F0000E846F81
:10421800000E856F000E866F000E876F845180191F
:104228000FE1855181190CE18651821909E1875105
:104238008319D8B422EF21F024EF21F027EF21F0E1
:10424800D89028EF21F0D88012000001846F000177
:104258008405D8A432EF21F034EF21F039EF21F0B2
:1042680080517F0F836F45EF21F0020E8419D8A487
:1042780040EF21F042EF21F045EF21F08051BF0FD0
:10428800836F83C036F0000EF9EC24F063EF21F061
:1042980081C0F6FF82C0F7FFF86A050EF76403D005
:1042A8000800F55005D0F6CFE1FFF7CFE2FFE75061
:1042B800366E010EF9EC24F00001814B822B81C08F
:1042C800F6FF82C0F7FFF86A050EF76403D008000E
:1042D800F55005D0F6CFE1FFF7CFE2FFE750000930
:1042E800D8A479EF21F07BEF21F04CEF21F01200F8
:1042F8000B6E0B04D8A483EF21F085EF21F08AEF31
:1043080021F007507F0F0A6E96EF21F0020E0B186E
:10431800D8A491EF21F093EF21F096EF21F0075008
:10432800BF0F0A6E0AC005F0000E08EC25F0B3EFC7
:1043380021F008C0F6FF09C0F7FFF86A050EF76418
:1043480003D00800F55005D0F6CFE1FFF7CFE2FF24
:10435800E750056E010E08EC25F0084A092A08C046
:10436800F6FF09C0F7FFF86A050EF76403D00800E6
:10437800F55005D0F6CFE1FFF7CFE2FFE75000098F
:10438800D8A4C9EF21F0CBEF21F09DEF21F0120066
:10439800000E956E969496929690000E836E849079
:1043A80084928494270E366EF50EE82EFED7362EAC
:1043B800FCD700F0000E376E300EFCEC1DF00D0E31
:1043C800366EFC0EE82EFED7362EFCD7372A020EA4
:1043D8003764F1EF21F0F3EF21F0E0EF21F0020E66
:1043E800FCEC1DF01A0EE82EFED700D0280EFCECCF
:1043F8001DF01A0EE82EFED700D0010EFCEC1DF0C1
:10440800060E366E300EE82EFED7362EFCD700D0BC
:104418000C0EFCEC1DF01A0EE82EFED700D0060E8E
:10442800FCEC1DF01A0EE82EFED700D012004CC08E
:1044380032F04DC033F0346A356A000E13EC19F0CF
:1044480032C08AF033C08BF034C08CF035C08DF0A8
:10445800520E00018E6F270E8F6FA00E906F3B0ECD
:10446800916FC3EC0DF08AC040F08BC041F08CC056
:1044780042F08DC043F040C080F041C081F042C09E
:1044880082F043C083F06F0E0001846F120E856FB7
:10449800030E866F3B0E876FEEEC11F080C0F9F0CB
:1044A80081C0FAF082C0FBF083C0FCF012004CC05F
:1044B80001F04DC002F0036A046A000EEFEC19F037
:1044C80001C00FF002C010F003C011F004C012F0D8
:1044D800520E136E270E146EA00E156E3B0E166E3E
:1044E800D9EC0FF00FC040F010C041F011C042F0FD
:1044F80012C043F040C001F041C002F042C003F0D6
:1045080043C004F06F0E056E120E066E030E076EA2
:104518003B0E086EBCEC13F001C0F9F002C0FAF0D3
:1045280003C0FBF004C0FCF01200700E01019E6F86
:10453800010E9F6F430EA06F060EA16F40C0A2F13F
:1045480041C0A3F142C0A4F143C0A5F15EEC23F041
:10455800500E01019E6F010E9F6F330EA06F060E65
:10456800A16FF9C0A2F1FAC0A3F1FBC0A4F1FCC08D
:10457800A5F15EEC23F0010E0001806F500E816FF3
:10458800010E826F010E29EC21F0010E0001806FEF
:10459800700E816F010E826F020E29EC21F012005D
:1045A8009AC1F7F09BC1F8F0000E456E000E446EFC
:1045B800F2EF22F098C1EDF099C1EEF0F70E00018C
:1045C800EF6F000EF06F9CC1F1F09DC1F2F0A1EC0D
:1045D8000BF00001ED514426EE514522F7C0F6FFDD
:1045E800F8C0F7FF0800F5500009D8A4FEEF22F044
:1045F80000EF23F0DEEF22F044C098F145C099F1B6
:10460800120034C080F035C081F032C082F033C06F
:1046180083F000018051366E8151376E804B812BBB
:1046280036C0F6FF37C0F7FFF86A82C0D9FF83C0EB
:10463800DAFF824B832B050EF76403D00800F55090
:1046480005D0F6CFE1FFF7CFE2FFE750DF6EDF508E
:10465800D8A431EF23F033EF23F00DEF23F012004D
:10466800010E0001806F200E32183310D8B43FEFCE
:1046780023F041EF23F05AEF23F0F70E346EFF0ECC
:10468800356E32C036F033C037F0345036263550E8
:104698003722375009E1050E365CD8A056EF23F0D3
:1046A80058EF23F05AEF23F0000E806F80C032F0ED
:1046B800336A1200A20E0101A66F010EA76F9EC1F8
:1046C800A8F19FC1A9F1000EAC6F000EAB6F000EF0
:1046D800B26F000EB16FA80E986F010E996FA0C14E
:1046E8009AF1A1C19BF1A60E9C6F010E9D6FD4ECAF
:1046F80022F00101AB519E25D96EAC519F21DA6E93
:10470800000EDF6E1200BF0E0001826FFF0E836F76
:1047180080C084F081C085F082518427835185232D
:10472800855107E11A0E845DD8B09DEF23F09FEF05
:1047380023F0A6EF23F0200E8011806F8151816F46
:10474800AAEF23F080C080F081C081F01200000E33
:1047580000018B6F000E8A6FBEEF23F089C032F024
:10476800336A87C034F088C035F04DEC1FF0000183
:104778008A4B8B2B8A518525D96E8B518621DA6E0F
:10478800DF50896F8951D8A4CCEF23F0CEEF23F006
:10479800B2EF23F01200000E0001A71B000EA81BA9
:1047A800000EA91B800EAA1BA3C080F0A4C081F034
:1047B800A5C082F0A6C083F0A7C084F0A8C085F089
:1047C800A9C086F0AAC087F040EC09F080C0A3F029
:1047D80081C0A4F082C0A5F083C0A6F01200BF0E6D
:1047E800346EFF0E356E32C036F033C037F03450B9
:1047F80036263550372237500AE11A0E365CD8A0D3
:1048080008EF24F00BEF24F0010E0CEF24F0000E5B
:10481800326E336A12003250331034103510D8B467
:1048280018EF24F01AEF24F022EF24F0000E321AC9
:10483800000E331A000E341A800E351A32C032F0C8
:1048480033C033F034C034F035C035F01200D00E28
:10485800346EFF0E356E32C036F033C037F0345048
:1048680036263550372237500AE10A0E365CD8A072
:1048780040EF24F043EF24F0010E44EF24F0000E43
:10488800326E336A120032C034F033C035F04FEF65
:1048980024F0324A332A32C0D9FF33C0DAFFDF505E
:1048A800D8A459EF24F05BEF24F04DEF24F03450F6
:1048B800325C326E35503358336E120001EE00F020
:1048C800900EEE6AE806FDE10001FE6BFD6BFC6BE5
:1048D800FB6BFA6BF96B00EE38F0160EEE6AE80621
:1048E800FDE14E904E92000EF86E0001AEEF24F0FE
:1048F800820E326EDE0EE82EFED7322EFCD7C28232
:10490800C2B289EF24F08BEF24F084EF24F0C4CFF7
:104918004CF04D6A4C50326EC3504C6E32C04DF064
:104928001200820E016EDE0EE82EFED7012EFCD795
:10493800C282C2B2A2EF24F0A4EF24F09DEF24F0CB
:10494800C4CF4CF04D6A4C50016EC3504C6E01C040
:104958004DF0120028EC25F023EC25F017EC25F09B
:104968001EEC25F0CCEC21F07CEC24F01BEC22F0C2
:1049780099EC22F089EC15F0D0EC16F0B8EF24F0A1
:1049880007EF00F032503402F3CF36F0F4CF37F0AF
:1049980032503502F350372633503402F35037265D
:1049A80036C032F037C033F01200336E3350321451
:1049B8000009D8B4E2EF24F0E4EF24F0E7EF24F0A4
:1049C800010EE8EF24F0000E1200026E02500114EE
:1049D8000009D8B4F2EF24F0F4EF24F0F7EF24F054
:1049E800010EF8EF24F0000E1200376E37B002D037
:1049F800849001D08480420EE82EFED700D08494A3
:104A08003650FCEC1DF01200066E06B002D0849001
:104A180001D08480420EE82EFED700D08494055041
:104A28006EEC1EF01200010EC26E0E0EC16E800EEC
:104A3800C06E1200900EF26EC00EF16E1200010EE2
:104A4800936E000E946E1200000ED36E000E9B6ED5
:044A58001200120036
:020000040020DA
:08000000FFFFFFFFFFFFFFFF00
:020000040030CA
:0E000000FF02191EFF8181FF0FC00FE00F40AD
:00000001FF
