:0400000007EF00F016
:0A0008007A82D9ED07F042EF0BF009
:10060000002020202020202020202020202020200A
:1006100000494E542045585445524E4100436F7591
:0D0620006E7465723A0025303164200000D0
:10062E0020C036F021C037F022C038F023C039F098
:10063E0024C03AF025C03BF026C03CF027C03DF068
:10064E003DBE2CEF03F02FEF03F0010E30EF03F061
:10065E00000E406E4050D8B437EF03F039EF03F080
:10066E0049EF03F03D1E3C1E3B1E3A1E391E381E3E
:10067E00371E366C000E3722382239223A223B22A0
:10068E003C223D2276BE4EEF03F050EF03F051EFC9
:10069E0003F0799276BE5EEF03F0765006E17504B4
:1006AE00D8B05CEF03F05EEF03F064EF03F0000EE2
:1006BE00336E010E326E68EF03F075C032F076C005
:1006CE0033F073C034F074C035F04050D8B472EFCC
:1006DE0003F074EF03F08BEF03F03406D8A0350669
:1006EE004050D8A47DEF03F07FEF03F085EF03F0C9
:1006FE00000E316E2B0E306E89EF03F0000E316E50
:10070E002D0E306E30C040F0000E3F6E1F0E3E6E4E
:10071E00000E00019F6F10EF04F03E06D8A03F06BA
:10072E00800E3E24D96E000E3F20DA6E36C003F0E6
:10073E0037C004F038C005F039C006F03AC007F0F3
:10074E003BC008F03CC009F03DC00AF00A0E0B6E2B
:10075E00000E0C6E000E0D6E000E0E6E000E0F6E65
:10076E00000E106E000E116E000E126E82EC06F070
:10077E0003C028F004C029F005C02AF006C02BF0F3
:10078E0007C02CF008C02DF009C02EF00AC02FF0C3
:10079E0028C015F029C016F00CEC0BF01550300FD8
:1007AE00DF6E3206D8A033063406D8A0350636C022
:1007BE0003F037C004F038C005F039C006F03AC077
:1007CE0007F03BC008F03CC009F03DC00AF00A0E2D
:1007DE000B6E000E0C6E000E0D6E000E0E6E000EE9
:1007EE000F6E000E106E000E116E000E126EBEEC2D
:1007FE0005F003C036F004C037F005C038F006C06F
:10080E0039F007C03AF008C03BF009C03CF00AC00E
:10081E003DF03FBE1BEF04F03F5008E13E04D8A070
:10082E001BEF04F01DEF04F04DEF04F036503710BF
:10083E00381039103A103B103C103D10D8A42AEF56
:10084E0004F02CEF04F094EF03F033BE39EF04F014
:10085E00335006E13204D8B037EF04F039EF04F02C
:10086E0094EF03F035BE44EF04F0355008E1340444
:10087E00D8A044EF04F046EF04F04DEF04F079B247
:10088E004BEF04F04DEF04F094EF03F04050D8B46A
:10089E0053EF04F055EF04F060EF04F03E06D8A0DD
:1008AE003F06800E3E24D96E000E3F20DA6E40C009
:1008BE00DFFF1EC013F01FC014F0800E3E24156E15
:1008CE00000E3F20166E34C017F035C018F044EC01
:1008DE0009F0120043C0D9FF44C0DAFFDECFF6FFA5
:1008EE00DDCFF7FF0800F550250AD8A481EF04F0FC
:1008FE0083EF04F0A9EF05F043C0D9FF44C0DAFF3F
:10090E00DE2A000EDD22000E746E000E736E73C0B2
:10091E0079F075687668000E536E000E526EC2EF57
:10092E0004F0798243C0D9FF44C0DAFFDE2A000EFC
:10093E00DD22C2EF04F0000E536E010E526EC2EFB6
:10094E0004F043C0D9FF44C0DAFFDECFF6FFDDCF9F
:10095E00F7FF0800F550476E486A4850000AD8B4B1
:10096E00BBEF04F0A2EF04F04750300AD8B498EF72
:10097E0004F0A2EF04F052505310D8B4C9EF04F0B3
:10098E00CBEF04F0A8EF04F043C0D9FF44C0DAFF68
:10099E00DECFF6FFDDCFF7FF0800F5502A0AD8A408
:1009AE00DBEF04F0DDEF04F006EF05F043C0D9FFF6
:1009BE0044C0DAFFDE2A000EDD2245C0D9FF46C054
:1009CE00DAFFDFCF47F0020EDE26DFCF48F0000E53
:1009DE00DD2247C0D9FF48C0DAFFDECF73F0DDCF8E
:1009EE0074F074BEFFEF04F0FDEF04F039EF05F084
:1009FE007980736C741ED8B0742A39EF05F043C039
:100A0E00D9FF44C0DAFFDECF09F0DDCF0AF034ECB7
:100A1E0007F009C073F00AC074F01DEF05F043C073
:100A2E00D9FF44C0DAFFDE2A000EDD2243C0D9FF13
:100A3E0044C0DAFFDECFF6FFDDCFF7FF0800F5CFBB
:100A4E0047F0D00E4724486E496AFF0E492249509E
:100A5E0009E10A0E485CD8A037EF05F039EF05F032
:100A6E0016EF05F043C0D9FF44C0DAFFDECF54F0D5
:100A7E00DDCF55F054C0F6FF55C0F7FF0800F55016
:100A8E00640AD8B44DEF05F04FEF05F05DEF05F0B9
:100A9E0054C0F6FF55C0F7FF0800F550690AD8A4F8
:100AAE005BEF05F05DEF05F0A0EF05F045C0D9FF57
:100ABE0046C0DAFFDFCF47F0020EDE26DFCF48F06A
:100ACE00000EDD2247C0D9FF48C0DAFFDECF4AF064
:100ADE00DDCF4BF0000E4BBEFF0E4C6E4D6E4E6ECC
:100AEE004F6E506E516E010E5424476E000E5520FF
:100AFE00486E43C0D9FF44C0DAFF47C0DEFF48C08E
:100B0E00DDFF41C01EF042C01FF04AC020F04BC0B6
:100B1E0021F04CC022F04DC023F04EC024F04FC047
:100B2E0025F050C026F051C027F017EC03F0BDEFB2
:100B3E0005F043C0D9FF44C0DAFFDE2A000EDD22E5
:100B4E00BDEF05F043C0D9FF44C0DAFFDECFF6FF9C
:100B5E00DDCFF7FF0800F550036E046A41C005F0C3
:100B6E0042C006F0DFEC08F0A0EF05F01200000E18
:100B7E00146E12BEC7EF05F0C5EF05F0D9EF05F004
:100B8E00121E111E101E0F1E0E1E0D1E0C1E0B6CA5
:100B9E00000E0C220D220E220F22102211221222E2
:100BAE00010E146E0ABEE0EF05F0DEEF05F0F2EF77
:100BBE0005F00A1E091E081E071E061E051E041E2F
:100BCE00036C000E042205220622072208220922A7
:100BDE000A22010E141A20EE15F0070EDE6AE80640
:100BEE00FDE20B500C100D100E100F101010111006
:100BFE001210D8B405EF06F007EF06F059EF06F025
:100C0E00010E136E15EF06F0D8900B360C360D361E
:100C1E000E360F36103611361236132A12AE1AEF62
:100C2E0006F01CEF06F00BEF06F0D89015361636D0
:100C3E001736183619361A361B361C360B50035C0F
:100C4E000C5004580D5005580E5006580F500758AA
:100C5E00105008581150095812500A58D8A03AEF9F
:100C6E0006F03CEF06F04DEF06F00B50035E0C5015
:100C7E00045A0D50055A0E50065A0F50075A10506E
:100C8E00085A1150095A12500A5A1580D890123229
:100C9E00113210320F320E320D320C320B32132E45
:100CAE001CEF06F01450D8B45FEF06F061EF06F0BB
:100CBE0071EF06F01C1E1B1E1A1E191E181E171E83
:100CCE00161E156C000E16221722182219221A2231
:100CDE001B221C2215C003F016C004F017C005F02D
:100CEE0018C006F019C007F01AC008F01BC009F0B2
:100CFE001CC00AF01200000E146E0ABE8BEF06F036
:100D0E0089EF06F09DEF06F00A1E091E081E071E4B
:100D1E00061E051E041E036C000E0422052206226A
:100D2E000722082209220A22010E146E12BEA4EF17
:100D3E0006F0A2EF06F0B4EF06F0121E111E101E02
:100D4E000F1E0E1E0D1E0C1E0B6C000E0C220D2205
:100D5E000E220F221022112212220B500C100D10F7
:100D6E000E100F10101011101210D8B4C1EF06F0A3
:100D7E00C3EF06F00BEF07F0010E136ED1EF06F086
:100D8E00D8900B360C360D360E360F361036113611
:100D9E001236132A12AED6EF06F0D8EF06F0C7EFD2
:100DAE0006F00B50035C0C5004580D5005580E50B5
:100DBE0006580F5007581050085811500958125025
:100DCE000A58D8A0EDEF06F0EFEF06F0FFEF06F0B1
:100DDE000B50035E0C50045A0D50055A0E50065A15
:100DEE000F50075A1050085A1150095A12500A5AE9
:100DFE00D8901232113210320F320E320D320C32B6
:100E0E000B32132ED8EF06F01450D8B411EF07F0B2
:100E1E0013EF07F023EF07F00A1E091E081E071E28
:100E2E00061E051E041E036C000E04220522062259
:100E3E000722082209220A2203C003F004C004F08C
:100E4E0005C005F006C006F007C007F008C008F0A0
:100E5E0009C009F00AC00AF01200000E116E000E51
:100E6E00106E000E0F6E000E0E6E40EF07F0094A68
:100E7E000A2A09C0F6FF0AC0F7FF0800F550200A3B
:100E8E00D8B44CEF07F04EEF07F03EEF07F009C075
:100E9E00F6FF0AC0F7FF0800F5CF0BF0F70E0B2494
:100EAE000C6E0D6AFF0E0D220D5009E1050E0C5C45
:100EBE00D8A064EF07F066EF07F03EEF07F070EF93
:100ECE0007F0000E0F6E010E0E6E094A0A2AA5EFEC
:100EDE0007F009C0F6FF0AC0F7FF0800F5500B6EC9
:100EEE000C6A0C50000AD8B47FEF07F0A5EF07F09C
:100EFE000B502B0AD8B46CEF07F0060AD8B468EF83
:100F0E0007F0A5EF07F010C003F011C004F0000EBB
:100F1E00066E0A0E056E55EC0BF009C0F6FF0AC000
:100F2E00F7FF0800F550035E000E045A300E03243E
:100F3E00106E000E0420116E6CEF07F009C0F6FF64
:100F4E000AC0F7FF0800F5CF0BF0D00E0B240C6E85
:100F5E000D6AFF0E0D220D5009E10A0E0C5CD8A091
:100F6E00BBEF07F0BDEF07F08AEF07F00E500F1042
:100F7E00D8A4C4EF07F0C6EF07F0D4EF07F010C007
:100F8E000BF011C00CF00B1E0C1E0B4A0C2A0BC0E2
:100F9E0009F00CC00AF0D8EF07F010C009F011C02C
:100FAE000AF012000600F2A2DFEF07F0E1EF07F001
:100FBE0022EF08F0774A782A78BEF1EF07F07850E2
:100FCE0007E1050E775CD8B0EFEF07F0F1EF07F011
:100FDE0021EF08F003EF08F00E0E826E21EF08F0FD
:100FEE000C0E826E21EF08F0080E826E21EF08F0D3
:100FFE00000E826E21EF08F077C001F078C002F08B
:10100E000250000AD8B40EEF08F021EF08F001509C
:10101E00010AD8B4F3EF07F0030AD8B4F7EF07F0DC
:10102E00010AD8B4FBEF07F0070AD8B4FFEF07F0B8
:10103E0021EF08F0F292F0A027EF08F029EF08F068
:10104E006BEF08F07706D8A0780678BE3AEF08F076
:10105E00785007E1050E775CD8B038EF08F03AEF1C
:10106E0008F06AEF08F04CEF08F00E0E826E6AEF91
:10107E0008F00C0E826E6AEF08F0080E826E6AEFB0
:10108E0008F0000E826E6AEF08F077C001F078C0AB
:10109E0002F00250000AD8B457EF08F06AEF08F0D9
:1010AE000150010AD8B43CEF08F0030AD8B440EF5F
:1010BE0008F0010AD8B444EF08F0070AD8B448EF94
:1010CE0008F06AEF08F0F0907A921100066E100E9A
:1010DE00036E065068EC0BF0056E053A835005184A
:1010EE00EF0B0518836E200E036E065068EC0BF0A6
:1010FE00056E053A054683500518DF0B0518836EFD
:10110E00400E036E065068EC0BF0056E053A054670
:10111E00054683500518BF0B0518836E800E036EAF
:10112E00065068EC0BF0056E05320532835005183B
:10113E007F0B0518836E84848494420EE82EFED7AE
:10114E0000D0010E036E065068EC0BF0056E053AEA
:10115E0083500518EF0B0518836E020E036E0650B2
:10116E0068EC0BF0056E053A054683500518DF0B4B
:10117E000518836E040E036E065068EC0BF0056EB8
:10118E00053A0546054683500518BF0B0518836EB4
:10119E00080E036E065068EC0BF0056E0532053234
:1011AE00835005187F0B0518836E84848494120077
:1011BE0005500610D8B4E6EF08F0E8EF08F0F1EFAE
:1011CE0008F005500610D8A4EFEF08F0F1EF08F084
:1011DE00F6EF08F003509DEC0BF043EF09F020EE14
:1011EE0009F00550D9260650DA22DE50DE10D8B4AA
:1011FE0003EF09F005EF09F020EF09F020EE09F0FA
:10120E000550D9260650DA2210EE03F00550E126DD
:10121E000650E222DE50E65CE650800A0B6EDE508F
:10122E00800A0B58D8B01EEF09F020EF09F043EFFB
:10123E0009F020EE03F00550D9260650DA22DECF53
:10124E0007F0DDCF08F005C0D9FF06C0DAFFDECF0C
:10125E0009F0DDCF0AF007500924D96E08500A2094
:10126E00DA6E03C0DFFF20EE03F00550D9260650DC
:10127E00DA22DE2A000EDD22120079A049EF09F0F3
:10128E004BEF09F055EF09F015C00CF016C00DF03C
:10129E0013C00EF014C00FF0EAEC0AF018BE5AEFAD
:1012AE0009F05CEF09F062EF09F017C01CF018C0EE
:1012BE001DF066EF09F0000E1D6E000E1C6E000E86
:1012CE001B6E000E1A6E78EF09F0000E046E200EE3
:1012DE00036E13C005F014C006F0DFEC08F01A4AD6
:1012EE001B2A1C501A5C1B50800A196E1D50800A56
:1012FE001958D8A085EF09F087EF09F06CEF09F0C7
:10130E0079B08CEF09F08EEF09F098EF09F015C067
:10131E000CF016C00DF013C00EF014C00FF0EAEC76
:10132E000AF012000D6E0D04D8A4A0EF09F0A2EF82
:10133E0009F0A7EF09F009507F0F0C6EB3EF09F01B
:10134E00020E0D18D8A4AEEF09F0B0EF09F0B3EF0E
:10135E0009F00950BF0F0C6E0CC007F0000E78ECB0
:10136E000BF0D0EF09F00AC0F6FF0BC0F7FFF86ADA
:10137E00050EF76403D00800F55005D0F6CFE1FF57
:10138E00F7CFE2FFE750076E010E78EC0BF00A4A3A
:10139E000B2A0AC0F6FF0BC0F7FFF86A050EF764BA
:1013AE0003D00800F55005D0F6CFE1FFF7CFE2FFEE
:1013BE00E7500009D8A4E6EF09F0E8EF09F0BAEF1C
:1013CE0009F01200000E956E969496929690000E6D
:1013DE00836E849084928494270E076EF50EE82E09
:1013EE00FED7072EFCD700F0000E086E300E6DEC07
:1013FE0008F00D0E076EFC0EE82EFED7072EFCD75A
:10140E00082A020E08640EEF0AF010EF0AF0FDEF44
:10141E0009F0020E6DEC08F01A0EE82EFED700D081
:10142E00280E6DEC08F01A0EE82EFED700D0010E35
:10143E006DEC08F0060E076E300EE82EFED7072E66
:10144E00FCD700D00C0E6DEC08F01A0EE82EFED76D
:10145E0000D0060E6DEC08F01A0EE82EFED700D066
:10146E00120098EC0BF087EC0BF091EC0BF0E9EC22
:10147E0009F0020E096E110E0A6E060E0B6E010EAB
:10148E0099EC09F0020E096E1D0E0A6E060E0B6E19
:10149E00020E99EC09F0020E726E040E716EBA0E07
:1014AE00E82EFED7712EFCD7722EFAD700D0A00EE2
:1014BE005E6E000E5F6E260E606E060E616E77C05B
:1014CE0062F078C063F079EC0AF00A0E096EA00E95
:1014DE000A6E000E0B6E020E99EC09F052EF0AF036
:1014EE0007EF00F0620E646E000E656E5EC066F071
:1014FE005FC067F0000E6A6E000E696E000E706EB1
:10150E00000E6F6E660E566E000E576E60C058F06F
:10151E0061C059F0640E5A6E000E5B6EA0EC0AF0BC
:10152E0069505E24D96E6A505F20DA6E000EDF6E4F
:10153E00120058C05CF059C05DF0B4EF0AF056C00E
:10154E0041F057C042F05C0E436E000E446E5AC01E
:10155E0045F05BC046F071EC04F05CC0F6FF5DC078
:10156E00F7FF0800F5500009D8A4C0EF0AF0C2EF4B
:10157E000AF0A6EF0AF0000E576E000E566E12001D
:10158E00010E076E200E03180410D8B4D1EF0AF026
:10159E00D3EF0AF0E6EF0AF0F70E0324056EFF0E06
:1015AE000420066E065009E1050E055CD8A0E2EF98
:1015BE000AF0E4EF0AF0E6EF0AF0000E076E07C03D
:1015CE0003F0046A1200000E126E000E116EFBEF95
:1015DE000AF010C003F0046A0EC005F00FC006F04A
:1015EE00DFEC08F0114A122A11500C24D96E125059
:1015FE000D20DA6EDF50106E1050D8A409EF0BF0EC
:10160E000BEF0BF0F0EF0AF0120016BE19EF0BF015
:10161E00165006E11504D8B017EF0BF019EF0BF0CA
:10162E0027EF0BF015C017F016C018F0171E181E76
:10163E00174A182A17C015F018C016F02BEF0BF02A
:10164E0015C015F016C016F01200D00E0324056E4C
:10165E00FF0E0420066E06500AE10A0E055CD8A0A5
:10166E003BEF0BF03EEF0BF0010E3FEF0BF0000ED9
:10167E00036E046A120000EE80F0300EEE6AE80689
:10168E00FDE100EE73F0070EEE6AE806FDE17A90DA
:10169E007A92000EF86E000138EF0AF00350050240
:1016AE00F3CF07F0F4CF08F003500602F3500826EC
:1016BE0004500502F350082607C003F008C004F0DA
:1016CE001200046E045003140009D8B471EF0BF02D
:1016DE0073EF0BF076EF0BF0010E77EF0BF0000EC1
:1016EE001200086E08B002D0849001D08480420EA1
:1016FE00E82EFED700D0849407506DEC08F012004F
:10170E00030E936E000E946E000E816E82680F0EA5
:10171E00C16E1200900EF26ED00EF16E080EF06ECB
:0E172E001200000ED36E000E9B6E1200120011
:020000040020DA
:08000000FFFFFFFFFFFFFFFF00
:020000040030CA
:0E000000FF021F1EFF8181FF0FC00FE00F40A7
:00000001FF
